{
  "address": "0x5a66b1ef5ef0c155c9C172b7a496BC035bfF72A0",
  "abi": [
    {
      "inputs": [],
      "stateMutability": "nonpayable",
      "type": "constructor"
    },
    {
      "anonymous": false,
      "inputs": [
        {
          "indexed": true,
          "internalType": "address",
          "name": "owner",
          "type": "address"
        },
        {
          "indexed": true,
          "internalType": "address",
          "name": "approved",
          "type": "address"
        },
        {
          "indexed": true,
          "internalType": "uint256",
          "name": "tokenId",
          "type": "uint256"
        }
      ],
      "name": "Approval",
      "type": "event"
    },
    {
      "anonymous": false,
      "inputs": [
        {
          "indexed": true,
          "internalType": "address",
          "name": "owner",
          "type": "address"
        },
        {
          "indexed": true,
          "internalType": "address",
          "name": "operator",
          "type": "address"
        },
        {
          "indexed": false,
          "internalType": "bool",
          "name": "approved",
          "type": "bool"
        }
      ],
      "name": "ApprovalForAll",
      "type": "event"
    },
    {
      "anonymous": false,
      "inputs": [
        {
          "indexed": true,
          "internalType": "uint256",
          "name": "tokenId",
          "type": "uint256"
        }
      ],
      "name": "Burn",
      "type": "event"
    },
    {
      "anonymous": false,
      "inputs": [
        {
          "indexed": false,
          "internalType": "uint8",
          "name": "version",
          "type": "uint8"
        }
      ],
      "name": "Initialized",
      "type": "event"
    },
    {
      "anonymous": false,
      "inputs": [
        {
          "indexed": true,
          "internalType": "address",
          "name": "to",
          "type": "address"
        },
        {
          "indexed": true,
          "internalType": "uint256",
          "name": "tokenId",
          "type": "uint256"
        }
      ],
      "name": "Mint",
      "type": "event"
    },
    {
      "anonymous": false,
      "inputs": [
        {
          "indexed": true,
          "internalType": "address",
          "name": "from",
          "type": "address"
        },
        {
          "indexed": true,
          "internalType": "address",
          "name": "to",
          "type": "address"
        },
        {
          "indexed": true,
          "internalType": "uint256",
          "name": "tokenId",
          "type": "uint256"
        }
      ],
      "name": "Transfer",
      "type": "event"
    },
    {
      "inputs": [
        {
          "internalType": "address",
          "name": "to",
          "type": "address"
        },
        {
          "internalType": "uint256",
          "name": "tokenId",
          "type": "uint256"
        }
      ],
      "name": "approve",
      "outputs": [],
      "stateMutability": "nonpayable",
      "type": "function"
    },
    {
      "inputs": [
        {
          "internalType": "address",
          "name": "owner",
          "type": "address"
        }
      ],
      "name": "balanceOf",
      "outputs": [
        {
          "internalType": "uint256",
          "name": "",
          "type": "uint256"
        }
      ],
      "stateMutability": "view",
      "type": "function"
    },
    {
      "inputs": [],
      "name": "bridge",
      "outputs": [
        {
          "internalType": "address",
          "name": "",
          "type": "address"
        }
      ],
      "stateMutability": "view",
      "type": "function"
    },
    {
      "inputs": [
        {
          "internalType": "uint256",
          "name": "tokenId",
          "type": "uint256"
        }
      ],
      "name": "burn",
      "outputs": [],
      "stateMutability": "nonpayable",
      "type": "function"
    },
    {
      "inputs": [
        {
          "internalType": "uint256",
          "name": "tokenId",
          "type": "uint256"
        }
      ],
      "name": "getApproved",
      "outputs": [
        {
          "internalType": "address",
          "name": "",
          "type": "address"
        }
      ],
      "stateMutability": "view",
      "type": "function"
    },
    {
      "inputs": [
        {
          "internalType": "string",
          "name": "name_",
          "type": "string"
        },
        {
          "internalType": "string",
          "name": "symbol_",
          "type": "string"
        },
        {
          "internalType": "address",
          "name": "bridge_",
          "type": "address"
        }
      ],
      "name": "initialize",
      "outputs": [],
      "stateMutability": "nonpayable",
      "type": "function"
    },
    {
      "inputs": [
        {
          "internalType": "address",
          "name": "owner",
          "type": "address"
        },
        {
          "internalType": "address",
          "name": "operator",
          "type": "address"
        }
      ],
      "name": "isApprovedForAll",
      "outputs": [
        {
          "internalType": "bool",
          "name": "",
          "type": "bool"
        }
      ],
      "stateMutability": "view",
      "type": "function"
    },
    {
      "inputs": [
        {
          "internalType": "address",
          "name": "to",
          "type": "address"
        },
        {
          "internalType": "uint256",
          "name": "tokenId",
          "type": "uint256"
        }
      ],
      "name": "mint",
      "outputs": [],
      "stateMutability": "nonpayable",
      "type": "function"
    },
    {
      "inputs": [],
      "name": "name",
      "outputs": [
        {
          "internalType": "string",
          "name": "",
          "type": "string"
        }
      ],
      "stateMutability": "view",
      "type": "function"
    },
    {
      "inputs": [
        {
          "internalType": "uint256",
          "name": "tokenId",
          "type": "uint256"
        }
      ],
      "name": "ownerOf",
      "outputs": [
        {
          "internalType": "address",
          "name": "",
          "type": "address"
        }
      ],
      "stateMutability": "view",
      "type": "function"
    },
    {
      "inputs": [
        {
          "internalType": "address",
          "name": "from",
          "type": "address"
        },
        {
          "internalType": "address",
          "name": "to",
          "type": "address"
        },
        {
          "internalType": "uint256",
          "name": "tokenId",
          "type": "uint256"
        }
      ],
      "name": "safeTransferFrom",
      "outputs": [],
      "stateMutability": "nonpayable",
      "type": "function"
    },
    {
      "inputs": [
        {
          "internalType": "address",
          "name": "from",
          "type": "address"
        },
        {
          "internalType": "address",
          "name": "to",
          "type": "address"
        },
        {
          "internalType": "uint256",
          "name": "tokenId",
          "type": "uint256"
        },
        {
          "internalType": "bytes",
          "name": "data",
          "type": "bytes"
        }
      ],
      "name": "safeTransferFrom",
      "outputs": [],
      "stateMutability": "nonpayable",
      "type": "function"
    },
    {
      "inputs": [
        {
          "internalType": "address",
          "name": "operator",
          "type": "address"
        },
        {
          "internalType": "bool",
          "name": "approved",
          "type": "bool"
        }
      ],
      "name": "setApprovalForAll",
      "outputs": [],
      "stateMutability": "nonpayable",
      "type": "function"
    },
    {
      "inputs": [
        {
          "internalType": "bytes4",
          "name": "interfaceId",
          "type": "bytes4"
        }
      ],
      "name": "supportsInterface",
      "outputs": [
        {
          "internalType": "bool",
          "name": "",
          "type": "bool"
        }
      ],
      "stateMutability": "view",
      "type": "function"
    },
    {
      "inputs": [],
      "name": "symbol",
      "outputs": [
        {
          "internalType": "string",
          "name": "",
          "type": "string"
        }
      ],
      "stateMutability": "view",
      "type": "function"
    },
    {
      "inputs": [
        {
          "internalType": "uint256",
          "name": "tokenId",
          "type": "uint256"
        }
      ],
      "name": "tokenURI",
      "outputs": [
        {
          "internalType": "string",
          "name": "",
          "type": "string"
        }
      ],
      "stateMutability": "view",
      "type": "function"
    },
    {
      "inputs": [
        {
          "internalType": "address",
          "name": "from",
          "type": "address"
        },
        {
          "internalType": "address",
          "name": "to",
          "type": "address"
        },
        {
          "internalType": "uint256",
          "name": "tokenId",
          "type": "uint256"
        }
      ],
      "name": "transferFrom",
      "outputs": [],
      "stateMutability": "nonpayable",
      "type": "function"
    }
  ],
  "transactionHash": "0xfeaee49740610ec74b071dec6cb637d87ce72cd76611b1cb80ec2a02d8491d9d",
  "args": [],
  "numDeployments": 1,
  "solcInputHash": "401bbafb7c7e7bb4ea17961c25e2d701",
  "bytecode": "0x60806040523480156200001157600080fd5b50604080516020808201808452600080845284519283019094528382528251929391926200004192919062000060565b5080516200005790600190602084019062000060565b50505062000143565b8280546200006e9062000106565b90600052602060002090601f016020900481019282620000925760008555620000dd565b82601f10620000ad57805160ff1916838001178555620000dd565b82800160010185558215620000dd579182015b82811115620000dd578251825591602001919060010190620000c0565b50620000eb929150620000ef565b5090565b5b80821115620000eb5760008155600101620000f0565b600181811c908216806200011b57607f821691505b602082108114156200013d57634e487b7160e01b600052602260045260246000fd5b50919050565b611a9980620001536000396000f3fe608060405234801561001057600080fd5b506004361061010b5760003560e01c806342966c68116100a2578063a22cb46511610071578063a22cb46514610228578063b88d4fde1461023b578063c87b56dd1461024e578063e78cea9214610261578063e985e9c51461027857600080fd5b806342966c68146101d95780636352211e146101ec57806370a08231146101ff57806395d89b411461022057600080fd5b8063095ea7b3116100de578063095ea7b31461018d57806323b872dd146101a057806340c10f19146101b357806342842e0e146101c657600080fd5b806301ffc9a71461011057806306fdde0314610138578063077f224a1461014d578063081812fc14610162575b600080fd5b61012361011e366004611502565b6102b4565b60405190151581526020015b60405180910390f35b610140610306565b60405161012f9190611577565b61016061015b366004611652565b610398565b005b6101756101703660046116c6565b61063d565b6040516001600160a01b03909116815260200161012f565b61016061019b3660046116df565b610664565b6101606101ae366004611709565b61077a565b6101606101c13660046116df565b6107ab565b6101606101d4366004611709565b61084f565b6101606101e73660046116c6565b61086a565b6101756101fa3660046116c6565b610901565b61021261020d366004611745565b610961565b60405190815260200161012f565b6101406109e7565b610160610236366004611760565b6109f6565b61016061024936600461179c565b610a05565b61014061025c3660046116c6565b610a37565b6007546201000090046001600160a01b0316610175565b610123610286366004611818565b6001600160a01b03918216600090815260056020908152604080832093909416825291909152205460ff1690565b60006001600160e01b031982166380ac58cd60e01b14806102e557506001600160e01b03198216635b5e139f60e01b145b8061030057506301ffc9a760e01b6001600160e01b03198316145b92915050565b6060600880546103159061184b565b80601f01602080910402602001604051908101604052809291908181526020018280546103419061184b565b801561038e5780601f106103635761010080835404028352916020019161038e565b820191906000526020600020905b81548152906001019060200180831161037157829003601f168201915b5050505050905090565b600754610100900460ff16158080156103b85750600754600160ff909116105b806103d25750303b1580156103d2575060075460ff166001145b61043a5760405162461bcd60e51b815260206004820152602e60248201527f496e697469616c697a61626c653a20636f6e747261637420697320616c72656160448201526d191e481a5b9a5d1a585b1a5e995960921b60648201526084015b60405180910390fd5b6007805460ff19166001179055801561045d576007805461ff0019166101001790555b60008451116104c35760405162461bcd60e51b815260206004820152602c60248201527f4552433732313a20696e697469616c20746f6b656e206e616d652063616e206e60448201526b6f7420626520656d7074792160a01b6064820152608401610431565b600083511161052b5760405162461bcd60e51b815260206004820152602e60248201527f4552433732313a20696e697469616c20746f6b656e2073796d626f6c2063616e60448201526d206e6f7420626520656d7074792160901b6064820152608401610431565b6001600160a01b0382166105a75760405162461bcd60e51b815260206004820152603960248201527f4552433732313a20696e697469616c206272696467652061646472657373206360448201527f616e206e6f742062652061207a65726f206164647265737321000000000000006064820152608401610431565b6007805462010000600160b01b031916620100006001600160a01b0385160217905583516105dc90600890602087019061141d565b5082516105f090600990602086019061141d565b508015610637576007805461ff0019169055604051600181527f7f26b83ff96e1f2b6a682f133852f6798a09c465da95921460cefb38474024989060200160405180910390a15b50505050565b600061064882610b48565b506000908152600460205260409020546001600160a01b031690565b600061066f82610901565b9050806001600160a01b0316836001600160a01b031614156106dd5760405162461bcd60e51b815260206004820152602160248201527f4552433732313a20617070726f76616c20746f2063757272656e74206f776e656044820152603960f91b6064820152608401610431565b336001600160a01b03821614806106f957506106f98133610286565b61076b5760405162461bcd60e51b815260206004820152603e60248201527f4552433732313a20617070726f76652063616c6c6572206973206e6f7420746f60448201527f6b656e206f776e6572206e6f7220617070726f76656420666f7220616c6c00006064820152608401610431565b6107758383610baa565b505050565b6107843382610c18565b6107a05760405162461bcd60e51b815260040161043190611886565b610775838383610c96565b6007546201000090046001600160a01b0316331461080b5760405162461bcd60e51b815260206004820152601e60248201527f546f6b656e3a2063616c6c6572206973206e6f742061206272696467652100006044820152606401610431565b6108158282610e32565b60405181906001600160a01b038416907f0f6798a560793a54c3bcfe86a93cde1e73087d944c0ea20544137d412139688590600090a35050565b61077583838360405180602001604052806000815250610a05565b6007546201000090046001600160a01b031633146108ca5760405162461bcd60e51b815260206004820152601e60248201527f546f6b656e3a2063616c6c6572206973206e6f742061206272696467652100006044820152606401610431565b6108d381610e4c565b60405181907fb90306ad06b2a6ff86ddc9327db583062895ef6540e62dc50add009db5b356eb90600090a250565b6000818152600260205260408120546001600160a01b0316806103005760405162461bcd60e51b8152602060048201526018602482015277115490cdcc8c4e881a5b9d985b1a59081d1bdad95b88125160421b6044820152606401610431565b60006001600160a01b0382166109cb5760405162461bcd60e51b815260206004820152602960248201527f4552433732313a2061646472657373207a65726f206973206e6f7420612076616044820152683634b21037bbb732b960b91b6064820152608401610431565b506001600160a01b031660009081526003602052604090205490565b6060600980546103159061184b565b610a01338383610e8c565b5050565b610a0f3383610c18565b610a2b5760405162461bcd60e51b815260040161043190611886565b61063784848484610f5b565b6060610a4282610b48565b60008281526006602052604081208054610a5b9061184b565b80601f0160208091040260200160405190810160405280929190818152602001828054610a879061184b565b8015610ad45780601f10610aa957610100808354040283529160200191610ad4565b820191906000526020600020905b815481529060010190602001808311610ab757829003601f168201915b505050505090506000610af260408051602081019091526000815290565b9050805160001415610b05575092915050565b815115610b37578082604051602001610b1f9291906118d4565b60405160208183030381529060405292505050919050565b610b4084610f8e565b949350505050565b6000818152600260205260409020546001600160a01b0316610ba75760405162461bcd60e51b8152602060048201526018602482015277115490cdcc8c4e881a5b9d985b1a59081d1bdad95b88125160421b6044820152606401610431565b50565b600081815260046020526040902080546001600160a01b0319166001600160a01b0384169081179091558190610bdf82610901565b6001600160a01b03167f8c5be1e5ebec7d5bd14f71427d1e84f3dd0314c0f7b2291e5b200ac8c7c3b92560405160405180910390a45050565b600080610c2483610901565b9050806001600160a01b0316846001600160a01b03161480610c6b57506001600160a01b0380821660009081526005602090815260408083209388168352929052205460ff165b80610b405750836001600160a01b0316610c848461063d565b6001600160a01b031614949350505050565b826001600160a01b0316610ca982610901565b6001600160a01b031614610d0d5760405162461bcd60e51b815260206004820152602560248201527f4552433732313a207472616e736665722066726f6d20696e636f72726563742060448201526437bbb732b960d91b6064820152608401610431565b6001600160a01b038216610d6f5760405162461bcd60e51b8152602060048201526024808201527f4552433732313a207472616e7366657220746f20746865207a65726f206164646044820152637265737360e01b6064820152608401610431565b610d7a600082610baa565b6001600160a01b0383166000908152600360205260408120805460019290610da3908490611919565b90915550506001600160a01b0382166000908152600360205260408120805460019290610dd1908490611930565b909155505060008181526002602052604080822080546001600160a01b0319166001600160a01b0386811691821790925591518493918716917fddf252ad1be2c89b69c2b068fc378daa952ba7f163c4a11628f55a4df523b3ef91a4505050565b610a01828260405180602001604052806000815250611002565b610e5581611035565b60008181526006602052604090208054610e6e9061184b565b159050610ba7576000818152600660205260408120610ba7916114a1565b816001600160a01b0316836001600160a01b03161415610eee5760405162461bcd60e51b815260206004820152601960248201527f4552433732313a20617070726f766520746f2063616c6c6572000000000000006044820152606401610431565b6001600160a01b03838116600081815260056020908152604080832094871680845294825291829020805460ff191686151590811790915591519182527f17307eab39ab6107e8899845ad3d59bd9653f200f220920489ca2b5937696c31910160405180910390a3505050565b610f66848484610c96565b610f72848484846110d0565b6106375760405162461bcd60e51b815260040161043190611948565b6060610f9982610b48565b6000610fb060408051602081019091526000815290565b90506000815111610fd05760405180602001604052806000815250610ffb565b80610fda846111dd565b604051602001610feb9291906118d4565b6040516020818303038152906040525b9392505050565b61100c83836112db565b61101960008484846110d0565b6107755760405162461bcd60e51b815260040161043190611948565b600061104082610901565b905061104d600083610baa565b6001600160a01b0381166000908152600360205260408120805460019290611076908490611919565b909155505060008281526002602052604080822080546001600160a01b0319169055518391906001600160a01b038416907fddf252ad1be2c89b69c2b068fc378daa952ba7f163c4a11628f55a4df523b3ef908390a45050565b60006001600160a01b0384163b156111d257604051630a85bd0160e11b81526001600160a01b0385169063150b7a029061111490339089908890889060040161199a565b602060405180830381600087803b15801561112e57600080fd5b505af192505050801561115e575060408051601f3d908101601f1916820190925261115b918101906119d7565b60015b6111b8573d80801561118c576040519150601f19603f3d011682016040523d82523d6000602084013e611191565b606091505b5080516111b05760405162461bcd60e51b815260040161043190611948565b805181602001fd5b6001600160e01b031916630a85bd0160e11b149050610b40565b506001949350505050565b6060816112015750506040805180820190915260018152600360fc1b602082015290565b8160005b811561122b5780611215816119f4565b91506112249050600a83611a25565b9150611205565b60008167ffffffffffffffff8111156112465761124661158a565b6040519080825280601f01601f191660200182016040528015611270576020820181803683370190505b5090505b8415610b4057611285600183611919565b9150611292600a86611a39565b61129d906030611930565b60f81b8183815181106112b2576112b2611a4d565b60200101906001600160f81b031916908160001a9053506112d4600a86611a25565b9450611274565b6001600160a01b0382166113315760405162461bcd60e51b815260206004820181905260248201527f4552433732313a206d696e7420746f20746865207a65726f20616464726573736044820152606401610431565b6000818152600260205260409020546001600160a01b0316156113965760405162461bcd60e51b815260206004820152601c60248201527f4552433732313a20746f6b656e20616c7265616479206d696e746564000000006044820152606401610431565b6001600160a01b03821660009081526003602052604081208054600192906113bf908490611930565b909155505060008181526002602052604080822080546001600160a01b0319166001600160a01b03861690811790915590518392907fddf252ad1be2c89b69c2b068fc378daa952ba7f163c4a11628f55a4df523b3ef908290a45050565b8280546114299061184b565b90600052602060002090601f01602090048101928261144b5760008555611491565b82601f1061146457805160ff1916838001178555611491565b82800160010185558215611491579182015b82811115611491578251825591602001919060010190611476565b5061149d9291506114d7565b5090565b5080546114ad9061184b565b6000825580601f106114bd575050565b601f016020900490600052602060002090810190610ba791905b5b8082111561149d57600081556001016114d8565b6001600160e01b031981168114610ba757600080fd5b60006020828403121561151457600080fd5b8135610ffb816114ec565b60005b8381101561153a578181015183820152602001611522565b838111156106375750506000910152565b6000815180845261156381602086016020860161151f565b601f01601f19169290920160200192915050565b602081526000610ffb602083018461154b565b634e487b7160e01b600052604160045260246000fd5b600067ffffffffffffffff808411156115bb576115bb61158a565b604051601f8501601f19908116603f011681019082821181831017156115e3576115e361158a565b816040528093508581528686860111156115fc57600080fd5b858560208301376000602087830101525050509392505050565b600082601f83011261162757600080fd5b610ffb838335602085016115a0565b80356001600160a01b038116811461164d57600080fd5b919050565b60008060006060848603121561166757600080fd5b833567ffffffffffffffff8082111561167f57600080fd5b61168b87838801611616565b945060208601359150808211156116a157600080fd5b506116ae86828701611616565b9250506116bd60408501611636565b90509250925092565b6000602082840312156116d857600080fd5b5035919050565b600080604083850312156116f257600080fd5b6116fb83611636565b946020939093013593505050565b60008060006060848603121561171e57600080fd5b61172784611636565b925061173560208501611636565b9150604084013590509250925092565b60006020828403121561175757600080fd5b610ffb82611636565b6000806040838503121561177357600080fd5b61177c83611636565b91506020830135801515811461179157600080fd5b809150509250929050565b600080600080608085870312156117b257600080fd5b6117bb85611636565b93506117c960208601611636565b925060408501359150606085013567ffffffffffffffff8111156117ec57600080fd5b8501601f810187136117fd57600080fd5b61180c878235602084016115a0565b91505092959194509250565b6000806040838503121561182b57600080fd5b61183483611636565b915061184260208401611636565b90509250929050565b600181811c9082168061185f57607f821691505b6020821081141561188057634e487b7160e01b600052602260045260246000fd5b50919050565b6020808252602e908201527f4552433732313a2063616c6c6572206973206e6f7420746f6b656e206f776e6560408201526d1c881b9bdc88185c1c1c9bdd995960921b606082015260800190565b600083516118e681846020880161151f565b8351908301906118fa81836020880161151f565b01949350505050565b634e487b7160e01b600052601160045260246000fd5b60008282101561192b5761192b611903565b500390565b6000821982111561194357611943611903565b500190565b60208082526032908201527f4552433732313a207472616e7366657220746f206e6f6e20455243373231526560408201527131b2b4bb32b91034b6b83632b6b2b73a32b960711b606082015260800190565b6001600160a01b03858116825284166020820152604081018390526080606082018190526000906119cd9083018461154b565b9695505050505050565b6000602082840312156119e957600080fd5b8151610ffb816114ec565b6000600019821415611a0857611a08611903565b5060010190565b634e487b7160e01b600052601260045260246000fd5b600082611a3457611a34611a0f565b500490565b600082611a4857611a48611a0f565b500690565b634e487b7160e01b600052603260045260246000fdfea264697066735822122089a8f8ea4e45dad80602ec906c168b9642b199426404ab152dd4e72c287dfac164736f6c63430008090033",
  "devdoc": {
    "kind": "dev",
    "methods": {
      "approve(address,uint256)": {
        "details": "See {IERC721-approve}."
      },
      "balanceOf(address)": {
        "details": "See {IERC721-balanceOf}."
      },
      "bridge()": {
        "returns": {
          "_0": "The address of the bridge"
        }
      },
      "burn(uint256)": {
        "params": {
          "tokenId": "The ID of the token to destroy"
        }
      },
      "constructor": {
        "details": "Creates an \"empty\" template token that will be cloned in the future"
      },
      "getApproved(uint256)": {
        "details": "See {IERC721-getApproved}."
      },
      "initialize(string,string,address)": {
        "details": "Upgrades an \"empty\" template. Initializes internal variables. ",
        "params": {
          "bridge_": "The address of the bridge of the tokens ",
          "name_": "The name of the token",
          "symbol_": "The symbol of the token"
        }
      },
      "isApprovedForAll(address,address)": {
        "details": "See {IERC721-isApprovedForAll}."
      },
      "mint(address,uint256)": {
        "params": {
          "to": "The receiver of tokens",
          "tokenId": "The ID of minted token"
        }
      },
      "name()": {
        "returns": {
          "_0": "The name of the token"
        }
      },
      "ownerOf(uint256)": {
        "details": "See {IERC721-ownerOf}."
      },
      "safeTransferFrom(address,address,uint256)": {
        "details": "See {IERC721-safeTransferFrom}."
      },
      "safeTransferFrom(address,address,uint256,bytes)": {
        "details": "See {IERC721-safeTransferFrom}."
      },
      "setApprovalForAll(address,bool)": {
        "details": "See {IERC721-setApprovalForAll}."
      },
      "supportsInterface(bytes4)": {
        "details": "See {IERC165-supportsInterface}."
      },
      "symbol()": {
        "returns": {
          "_0": "The symbol of the token"
        }
      },
      "tokenURI(uint256)": {
        "details": "See {IERC721Metadata-tokenURI}."
      },
      "transferFrom(address,address,uint256)": {
        "details": "See {IERC721-transferFrom}."
      }
    },
    "title": "A custom ERC721 contract used in the bridge",
    "version": 1
  },
  "userdoc": {
    "events": {
      "Burn(uint256)": {
        "notice": "Is emitted on every burn of the token"
      },
      "Mint(address,uint256)": {
        "notice": "Is emitted on every mint of the token"
      }
    },
    "kind": "user",
    "methods": {
      "bridge()": {
        "notice": "Returns the address of the bridge"
      },
      "burn(uint256)": {
        "notice": "Destroys a token with a given ID"
      },
      "mint(address,uint256)": {
        "notice": "Creates tokens and assigns them to account"
      },
      "name()": {
        "notice": "Returns the name of the token"
      },
      "symbol()": {
        "notice": "Returns the symbol of the token"
      }
    },
    "version": 1
  },
  "storageLayout": {
    "storage": [
      {
        "astId": 5388,
        "contract": "contracts/WrappedERC721.sol:WrappedERC721",
        "label": "_name",
        "offset": 0,
        "slot": "0",
        "type": "t_string_storage"
      },
      {
        "astId": 5390,
        "contract": "contracts/WrappedERC721.sol:WrappedERC721",
        "label": "_symbol",
        "offset": 0,
        "slot": "1",
        "type": "t_string_storage"
      },
      {
        "astId": 5394,
        "contract": "contracts/WrappedERC721.sol:WrappedERC721",
        "label": "_owners",
        "offset": 0,
        "slot": "2",
        "type": "t_mapping(t_uint256,t_address)"
      },
      {
        "astId": 5398,
        "contract": "contracts/WrappedERC721.sol:WrappedERC721",
        "label": "_balances",
        "offset": 0,
        "slot": "3",
        "type": "t_mapping(t_address,t_uint256)"
      },
      {
        "astId": 5402,
        "contract": "contracts/WrappedERC721.sol:WrappedERC721",
        "label": "_tokenApprovals",
        "offset": 0,
        "slot": "4",
        "type": "t_mapping(t_uint256,t_address)"
      },
      {
        "astId": 5408,
        "contract": "contracts/WrappedERC721.sol:WrappedERC721",
        "label": "_operatorApprovals",
        "offset": 0,
        "slot": "5",
        "type": "t_mapping(t_address,t_mapping(t_address,t_bool))"
      },
      {
        "astId": 6376,
        "contract": "contracts/WrappedERC721.sol:WrappedERC721",
        "label": "_tokenURIs",
        "offset": 0,
        "slot": "6",
        "type": "t_mapping(t_uint256,t_string_storage)"
      },
      {
        "astId": 415,
        "contract": "contracts/WrappedERC721.sol:WrappedERC721",
        "label": "_initialized",
        "offset": 0,
        "slot": "7",
        "type": "t_uint8"
      },
      {
        "astId": 418,
        "contract": "contracts/WrappedERC721.sol:WrappedERC721",
        "label": "_initializing",
        "offset": 1,
        "slot": "7",
        "type": "t_bool"
      },
      {
        "astId": 9018,
        "contract": "contracts/WrappedERC721.sol:WrappedERC721",
        "label": "_bridge",
        "offset": 2,
        "slot": "7",
        "type": "t_address"
      },
      {
        "astId": 9020,
        "contract": "contracts/WrappedERC721.sol:WrappedERC721",
        "label": "_tokenName",
        "offset": 0,
        "slot": "8",
        "type": "t_string_storage"
      },
      {
        "astId": 9022,
        "contract": "contracts/WrappedERC721.sol:WrappedERC721",
        "label": "_tokenSymbol",
        "offset": 0,
        "slot": "9",
        "type": "t_string_storage"
      }
    ],
    "types": {
      "t_address": {
        "encoding": "inplace",
        "label": "address",
        "numberOfBytes": "20"
      },
      "t_bool": {
        "encoding": "inplace",
        "label": "bool",
        "numberOfBytes": "1"
      },
      "t_mapping(t_address,t_bool)": {
        "encoding": "mapping",
        "key": "t_address",
        "label": "mapping(address => bool)",
        "numberOfBytes": "32",
        "value": "t_bool"
      },
      "t_mapping(t_address,t_mapping(t_address,t_bool))": {
        "encoding": "mapping",
        "key": "t_address",
        "label": "mapping(address => mapping(address => bool))",
        "numberOfBytes": "32",
        "value": "t_mapping(t_address,t_bool)"
      },
      "t_mapping(t_address,t_uint256)": {
        "encoding": "mapping",
        "key": "t_address",
        "label": "mapping(address => uint256)",
        "numberOfBytes": "32",
        "value": "t_uint256"
      },
      "t_mapping(t_uint256,t_address)": {
        "encoding": "mapping",
        "key": "t_uint256",
        "label": "mapping(uint256 => address)",
        "numberOfBytes": "32",
        "value": "t_address"
      },
      "t_mapping(t_uint256,t_string_storage)": {
        "encoding": "mapping",
        "key": "t_uint256",
        "label": "mapping(uint256 => string)",
        "numberOfBytes": "32",
        "value": "t_string_storage"
      },
      "t_string_storage": {
        "encoding": "bytes",
        "label": "string",
        "numberOfBytes": "32"
      },
      "t_uint256": {
        "encoding": "inplace",
        "label": "uint256",
        "numberOfBytes": "32"
      },
      "t_uint8": {
        "encoding": "inplace",
        "label": "uint8",
        "numberOfBytes": "1"
      }
    }
  }
}