{
  "address": "0x337BFE735BF05148A4E125d35F2aA5AA74BecfB3",
  "abi": [
    {
      "anonymous": false,
      "inputs": [
        {
          "indexed": false,
          "internalType": "string",
          "name": "originalChain",
          "type": "string"
        },
        {
          "indexed": false,
          "internalType": "address",
          "name": "originalToken",
          "type": "address"
        },
        {
          "indexed": false,
          "internalType": "string",
          "name": "tokenUri",
          "type": "string"
        },
        {
          "indexed": true,
          "internalType": "address",
          "name": "token",
          "type": "address"
        }
      ],
      "name": "CreateERC1155Token",
      "type": "event"
    },
    {
      "anonymous": false,
      "inputs": [
        {
          "indexed": false,
          "internalType": "string",
          "name": "originalChain",
          "type": "string"
        },
        {
          "indexed": false,
          "internalType": "address",
          "name": "originalToken",
          "type": "address"
        },
        {
          "indexed": false,
          "internalType": "string",
          "name": "name",
          "type": "string"
        },
        {
          "indexed": true,
          "internalType": "address",
          "name": "token",
          "type": "address"
        }
      ],
      "name": "CreateERC20Token",
      "type": "event"
    },
    {
      "anonymous": false,
      "inputs": [
        {
          "indexed": false,
          "internalType": "string",
          "name": "originalChain",
          "type": "string"
        },
        {
          "indexed": false,
          "internalType": "address",
          "name": "originalToken",
          "type": "address"
        },
        {
          "indexed": false,
          "internalType": "string",
          "name": "name",
          "type": "string"
        },
        {
          "indexed": true,
          "internalType": "address",
          "name": "token",
          "type": "address"
        }
      ],
      "name": "CreateERC721Token",
      "type": "event"
    },
    {
      "anonymous": false,
      "inputs": [
        {
          "indexed": false,
          "internalType": "uint8",
          "name": "version",
          "type": "uint8"
        }
      ],
      "name": "Initialized",
      "type": "event"
    },
    {
      "inputs": [
        {
          "internalType": "address",
          "name": "originalToken",
          "type": "address"
        }
      ],
      "name": "checkTargetToken",
      "outputs": [
        {
          "internalType": "bool",
          "name": "",
          "type": "bool"
        }
      ],
      "stateMutability": "view",
      "type": "function"
    },
    {
      "inputs": [
        {
          "internalType": "string",
          "name": "originalChain",
          "type": "string"
        },
        {
          "internalType": "address",
          "name": "originalToken",
          "type": "address"
        },
        {
          "internalType": "string",
          "name": "tokenUri",
          "type": "string"
        },
        {
          "internalType": "address",
          "name": "bridge",
          "type": "address"
        }
      ],
      "name": "createERC1155Token",
      "outputs": [
        {
          "internalType": "address",
          "name": "",
          "type": "address"
        }
      ],
      "stateMutability": "nonpayable",
      "type": "function"
    },
    {
      "inputs": [
        {
          "internalType": "string",
          "name": "originalChain",
          "type": "string"
        },
        {
          "internalType": "address",
          "name": "originalToken",
          "type": "address"
        },
        {
          "internalType": "string",
          "name": "name",
          "type": "string"
        },
        {
          "internalType": "string",
          "name": "symbol",
          "type": "string"
        },
        {
          "internalType": "uint8",
          "name": "decimals",
          "type": "uint8"
        },
        {
          "internalType": "address",
          "name": "bridge",
          "type": "address"
        }
      ],
      "name": "createERC20Token",
      "outputs": [
        {
          "internalType": "address",
          "name": "",
          "type": "address"
        }
      ],
      "stateMutability": "nonpayable",
      "type": "function"
    },
    {
      "inputs": [
        {
          "internalType": "string",
          "name": "originalChain",
          "type": "string"
        },
        {
          "internalType": "address",
          "name": "originalToken",
          "type": "address"
        },
        {
          "internalType": "string",
          "name": "name",
          "type": "string"
        },
        {
          "internalType": "string",
          "name": "symbol",
          "type": "string"
        },
        {
          "internalType": "address",
          "name": "bridge",
          "type": "address"
        }
      ],
      "name": "createERC721Token",
      "outputs": [
        {
          "internalType": "address",
          "name": "",
          "type": "address"
        }
      ],
      "stateMutability": "nonpayable",
      "type": "function"
    },
    {
      "inputs": [
        {
          "internalType": "address",
          "name": "wrappedToken",
          "type": "address"
        }
      ],
      "name": "getOriginalToken",
      "outputs": [
        {
          "components": [
            {
              "internalType": "string",
              "name": "originalChain",
              "type": "string"
            },
            {
              "internalType": "address",
              "name": "originalAddress",
              "type": "address"
            }
          ],
          "internalType": "struct WrappedTokenFactory.TokenInfo",
          "name": "",
          "type": "tuple"
        }
      ],
      "stateMutability": "view",
      "type": "function"
    },
    {
      "inputs": [
        {
          "internalType": "string",
          "name": "name",
          "type": "string"
        }
      ],
      "name": "getWrappedAddressByName",
      "outputs": [
        {
          "internalType": "address",
          "name": "",
          "type": "address"
        }
      ],
      "stateMutability": "view",
      "type": "function"
    },
    {
      "inputs": [
        {
          "internalType": "string",
          "name": "uri",
          "type": "string"
        }
      ],
      "name": "getWrappedAddressByUri",
      "outputs": [
        {
          "internalType": "address",
          "name": "",
          "type": "address"
        }
      ],
      "stateMutability": "view",
      "type": "function"
    },
    {
      "inputs": [
        {
          "internalType": "address",
          "name": "_ERC20Template",
          "type": "address"
        },
        {
          "internalType": "address",
          "name": "_ERC721Template",
          "type": "address"
        },
        {
          "internalType": "address",
          "name": "_ERC1155Template",
          "type": "address"
        }
      ],
      "name": "initialize",
      "outputs": [],
      "stateMutability": "nonpayable",
      "type": "function"
    }
  ],
  "transactionHash": "0x9f8c7b3778cd0b6bc3661ab73fb42cf4c177770c988c50ea1db60549269846e5",
  "args": [],
  "numDeployments": 1,
  "solcInputHash": "401bbafb7c7e7bb4ea17961c25e2d701",
  "bytecode": "0x608060405234801561001057600080fd5b506116f4806100206000396000f3fe608060405234801561001057600080fd5b50600436106100885760003560e01c8063c0c53b8b1161005b578063c0c53b8b14610103578063c2de071714610118578063e6aaf8de1461013b578063ee8af82a1461014e57600080fd5b80633a250a6a1461008d57806345d7ad62146100bd578063510ae615146100d0578063a7d1054e146100f0575b600080fd5b6100a061009b366004611120565b610161565b6040516001600160a01b0390911681526020015b60405180910390f35b6100a06100cb366004611174565b610285565b6100e36100de36600461121e565b610509565b6040516100b49190611298565b6100a06100fe3660046112d5565b6106ee565b610116610111366004611396565b6109c7565b005b61012b61012636600461121e565b610b10565b60405190151581526020016100b4565b6100a06101493660046113d9565b610bb5565b6100a061015c366004611120565b610e52565b6000808251116101c25760405162461bcd60e51b815260206004820152602160248201527f466163746f72793a20746f6b656e206e616d6520697320746f6f2073686f72746044820152602160f81b60648201526084015b60405180910390fd5b60006001600160a01b0316606a836040516101dd919061145e565b908152604051908190036020019020546001600160a01b031614156102565760405162461bcd60e51b815260206004820152602960248201527f466163746f72793a206e6f207772617070656420746f6b656e20776974682074604482015268686973206e616d652160b81b60648201526084016101b9565b606a82604051610266919061145e565b908152604051908190036020019020546001600160a01b031692915050565b6000808651116102a75760405162461bcd60e51b81526004016101b99061147a565b60008451116102c85760405162461bcd60e51b81526004016101b9906114bb565b60008351116102e95760405162461bcd60e51b81526004016101b990611500565b6001600160a01b03821661030f5760405162461bcd60e51b81526004016101b990611547565b61031885610b10565b1561037b5760405162461bcd60e51b815260206004820152602d60248201527f466163746f72793a20777261707065642045524337323120746f6b656e20616c60448201526c7265616479206578697374732160981b60648201526084016101b9565b606654600090610393906001600160a01b0316610f47565b6001600160a01b03878116600081815260686020908152604080832080546001600160a01b0319169587169586179055805180820182528d81528083019490945293825260698152929020815180519495509193849391926103f9928492910190610fe4565b5060209190910151600190910180546001600160a01b0319166001600160a01b039092169190911790556040518290606a9061043690899061145e565b90815260405190819003602001812080546001600160a01b039384166001600160a01b03199091161790556303bf912560e11b81529083169063077f224a9061048790899089908990600401611593565b600060405180830381600087803b1580156104a157600080fd5b505af11580156104b5573d6000803e3d6000fd5b50505050816001600160a01b03167f20179be98bf0accf40be5791846c5c827335600423d597b1afc1f990d60d0df48989896040516104f6939291906115d1565b60405180910390a2509695505050505050565b6040805180820190915260608152600060208201526001600160a01b0382166105905760405162461bcd60e51b815260206004820152603360248201527f466163746f72793a207772617070656420746f6b656e2063616e206e6f7420686044820152726176652061207a65726f20616464726573732160681b60648201526084016101b9565b6001600160a01b038216600090815260696020526040812080546105b39061160f565b9050116106205760405162461bcd60e51b815260206004820152603560248201527f466163746f72793a206e6f206f726967696e616c20746f6b656e20666f756e6460448201527420666f722061207772617070656420746f6b656e2160581b60648201526084016101b9565b6001600160a01b0382166000908152606960205260409081902081518083019092528054829082906106519061160f565b80601f016020809104026020016040519081016040528092919081815260200182805461067d9061160f565b80156106ca5780601f1061069f576101008083540402835291602001916106ca565b820191906000526020600020905b8154815290600101906020018083116106ad57829003601f168201915b5050509183525050600191909101546001600160a01b031660209091015292915050565b6000808751116107105760405162461bcd60e51b81526004016101b99061147a565b60008551116107315760405162461bcd60e51b81526004016101b9906114bb565b60008451116107525760405162461bcd60e51b81526004016101b990611500565b60008360ff16116107a55760405162461bcd60e51b815260206004820152601a60248201527f466163746f72793a20696e76616c696420646563696d616c732100000000000060448201526064016101b9565b6001600160a01b0382166107cb5760405162461bcd60e51b81526004016101b990611547565b6107d486610b10565b156108365760405162461bcd60e51b815260206004820152602c60248201527f466163746f72793a207772617070656420455243323020746f6b656e20616c7260448201526b65616479206578697374732160a01b60648201526084016101b9565b60655460009061084e906001600160a01b0316610f47565b6001600160a01b03888116600081815260686020908152604080832080546001600160a01b0319169587169586179055805180820182528e81528083019490945293825260698152929020815180519495509193849391926108b4928492910190610fe4565b5060209190910151600190910180546001600160a01b0319166001600160a01b039092169190911790556040518290606a906108f1908a9061145e565b90815260405190819003602001812080546001600160a01b039384166001600160a01b031990911617905563de7ea79d60e01b81529083169063de7ea79d90610944908a908a908a908a9060040161164a565b600060405180830381600087803b15801561095e57600080fd5b505af1158015610972573d6000803e3d6000fd5b50505050816001600160a01b03167f6f4917842a9c4032f191ecc8dcc696ca5cecd9114c2d7bfb2547095d6432ba758a8a8a6040516109b3939291906115d1565b60405180910390a250979650505050505050565b600054610100900460ff16158080156109e75750600054600160ff909116105b80610a015750303b158015610a01575060005460ff166001145b610a645760405162461bcd60e51b815260206004820152602e60248201527f496e697469616c697a61626c653a20636f6e747261637420697320616c72656160448201526d191e481a5b9a5d1a585b1a5e995960921b60648201526084016101b9565b6000805460ff191660011790558015610a87576000805461ff0019166101001790555b606580546001600160a01b038087166001600160a01b0319928316179092556066805486841690831617905560678054928516929091169190911790558015610b0a576000805461ff0019169055604051600181527f7f26b83ff96e1f2b6a682f133852f6798a09c465da95921460cefb38474024989060200160405180910390a15b50505050565b60006001600160a01b038216610b855760405162461bcd60e51b815260206004820152603460248201527f466163746f72793a206f726967696e616c20746f6b656e2063616e206e6f7420604482015273686176652061207a65726f20616464726573732160601b60648201526084016101b9565b6001600160a01b038281166000908152606860205260409020541615610bad57506001919050565b506000919050565b600080855111610bd75760405162461bcd60e51b81526004016101b99061147a565b6000835111610c345760405162461bcd60e51b8152602060048201526024808201527f466163746f72793a206e657720746f6b656e2055524920697320746f6f2073686044820152636f72742160e01b60648201526084016101b9565b6001600160a01b038216610c5a5760405162461bcd60e51b81526004016101b990611547565b610c6384610b10565b15610cc75760405162461bcd60e51b815260206004820152602e60248201527f466163746f72793a2077726170706564204552433131353520746f6b656e206160448201526d6c7265616479206578697374732160901b60648201526084016101b9565b606754600090610cdf906001600160a01b0316610f47565b6001600160a01b03868116600081815260686020908152604080832080546001600160a01b0319169587169586179055805180820182528c8152808301949094529382526069815292902081518051949550919384939192610d45928492910190610fe4565b5060209190910151600190910180546001600160a01b0319166001600160a01b039092169190911790556040518290606b90610d8290889061145e565b90815260405190819003602001812080546001600160a01b039384166001600160a01b0319909116179055637ab4339d60e01b815290831690637ab4339d90610dd19088908890600401611694565b600060405180830381600087803b158015610deb57600080fd5b505af1158015610dff573d6000803e3d6000fd5b50505050816001600160a01b03167f77f4ad3cac10cff98124f87c4c45dac653aa2603d2f9cf8bdbb88dd2eb7f3339888888604051610e40939291906115d1565b60405180910390a25095945050505050565b600080825111610ea45760405162461bcd60e51b815260206004820181905260248201527f466163746f72793a20746f6b656e2055524920697320746f6f2073686f72742160448201526064016101b9565b60006001600160a01b0316606b83604051610ebf919061145e565b908152604051908190036020019020546001600160a01b03161415610f375760405162461bcd60e51b815260206004820152602860248201527f466163746f72793a206e6f207772617070656420746f6b656e20776974682074604482015267686973205552492160c01b60648201526084016101b9565b606b82604051610266919061145e565b6000604051733d602d80600a3d3981f3363d3d373d3d3d363d7360601b81528260601b60148201526e5af43d82803e903d91602b57fd5bf360881b60288201526037816000f09150506001600160a01b038116610fdf5760405162461bcd60e51b8152602060048201526016602482015275115490cc4c4d8dce8818dc99585d194819985a5b195960521b60448201526064016101b9565b919050565b828054610ff09061160f565b90600052602060002090601f0160209004810192826110125760008555611058565b82601f1061102b57805160ff1916838001178555611058565b82800160010185558215611058579182015b8281111561105857825182559160200191906001019061103d565b50611064929150611068565b5090565b5b808211156110645760008155600101611069565b634e487b7160e01b600052604160045260246000fd5b600082601f8301126110a457600080fd5b813567ffffffffffffffff808211156110bf576110bf61107d565b604051601f8301601f19908116603f011681019082821181831017156110e7576110e761107d565b8160405283815286602085880101111561110057600080fd5b836020870160208301376000602085830101528094505050505092915050565b60006020828403121561113257600080fd5b813567ffffffffffffffff81111561114957600080fd5b61115584828501611093565b949350505050565b80356001600160a01b0381168114610fdf57600080fd5b600080600080600060a0868803121561118c57600080fd5b853567ffffffffffffffff808211156111a457600080fd5b6111b089838a01611093565b96506111be6020890161115d565b955060408801359150808211156111d457600080fd5b6111e089838a01611093565b945060608801359150808211156111f657600080fd5b5061120388828901611093565b9250506112126080870161115d565b90509295509295909350565b60006020828403121561123057600080fd5b6112398261115d565b9392505050565b60005b8381101561125b578181015183820152602001611243565b83811115610b0a5750506000910152565b60008151808452611284816020860160208601611240565b601f01601f19169290920160200192915050565b6020815260008251604060208401526112b4606084018261126c565b602094909401516001600160a01b0316604093909301929092525090919050565b60008060008060008060c087890312156112ee57600080fd5b863567ffffffffffffffff8082111561130657600080fd5b6113128a838b01611093565b975061132060208a0161115d565b9650604089013591508082111561133657600080fd5b6113428a838b01611093565b9550606089013591508082111561135857600080fd5b5061136589828a01611093565b935050608087013560ff8116811461137c57600080fd5b915061138a60a0880161115d565b90509295509295509295565b6000806000606084860312156113ab57600080fd5b6113b48461115d565b92506113c26020850161115d565b91506113d06040850161115d565b90509250925092565b600080600080608085870312156113ef57600080fd5b843567ffffffffffffffff8082111561140757600080fd5b61141388838901611093565b95506114216020880161115d565b9450604087013591508082111561143757600080fd5b5061144487828801611093565b9250506114536060860161115d565b905092959194509250565b60008251611470818460208701611240565b9190910192915050565b60208082526021908201527f466163746f72793a20636861696e206e616d6520697320746f6f2073686f72746040820152602160f81b606082015260800190565b60208082526025908201527f466163746f72793a206e657720746f6b656e206e616d6520697320746f6f2073604082015264686f72742160d81b606082015260800190565b60208082526027908201527f466163746f72793a206e657720746f6b656e2073796d626f6c20697320746f6f6040820152662073686f72742160c81b606082015260800190565b6020808252602c908201527f466163746f72793a206272696467652063616e206e6f7420686176652061207a60408201526b65726f20616464726573732160a01b606082015260800190565b6060815260006115a6606083018661126c565b82810360208401526115b8818661126c565b91505060018060a01b0383166040830152949350505050565b6060815260006115e4606083018661126c565b6001600160a01b03851660208401528281036040840152611605818561126c565b9695505050505050565b600181811c9082168061162357607f821691505b6020821081141561164457634e487b7160e01b600052602260045260246000fd5b50919050565b60808152600061165d608083018761126c565b828103602084015261166f818761126c565b60ff95909516604084015250506001600160a01b039190911660609091015292915050565b6040815260006116a7604083018561126c565b905060018060a01b0383166020830152939250505056fea2646970667358221220bdc89f35e10cdf505e71248037b971df97582f74d48e745e5069726355228fc964736f6c63430008090033",
  "devdoc": {
    "kind": "dev",
    "methods": {
      "checkTargetToken(address)": {
        "params": {
          "originalToken": "The address of the original token to check"
        },
        "returns": {
          "_0": "True if a wrapped token exists for a given original token"
        }
      },
      "createERC1155Token(string,address,string,address)": {
        "params": {
          "originalChain": "The name of the original chain",
          "originalToken": "The address of the original token on the original chain",
          "tokenUri": "The URI of the token"
        },
        "returns": {
          "_0": "The address of a new token"
        }
      },
      "createERC20Token(string,address,string,string,uint8,address)": {
        "details": "Should be deployed on the target chain",
        "params": {
          "bridge": "The address of the bridge of tokens",
          "decimals": "The number of decimals of the new token",
          "name": "The name of the new token",
          "originalChain": "The name of the original chain",
          "originalToken": "The address of the original token",
          "symbol": "The symbol of the new token"
        },
        "returns": {
          "_0": "The address of a new token"
        }
      },
      "createERC721Token(string,address,string,string,address)": {
        "params": {
          "name": "The name of the new token",
          "originalChain": "The name of the original chain",
          "originalToken": "The address of the original token on the original chain",
          "symbol": "The symbol of the new token"
        },
        "returns": {
          "_0": "The address of a new token"
        }
      },
      "getOriginalToken(address)": {
        "params": {
          "wrappedToken": "The address of the wrapped token"
        },
        "returns": {
          "_0": "The name of the original chain and the address of the original token"
        }
      },
      "getWrappedAddressByName(string)": {
        "details": "Used only for ERC20 and ERC721"
      },
      "getWrappedAddressByUri(string)": {
        "details": "Used only for ERC1155"
      },
      "initialize(address,address,address)": {
        "details": "config token templates to copy and upgrade it later",
        "params": {
          "_ERC1155Template": "template for ERC1155 tokens",
          "_ERC20Template": "template for ERC20 tokens",
          "_ERC721Template": "template for ERC721 tokens"
        }
      }
    },
    "stateVariables": {
      "ERC20Template": {
        "details": "Addresses of token templates to clone"
      },
      "originalToWrappedTokens": {
        "details": "Map of addresses of tokens in the original and target chains"
      },
      "wrappedNameToAddress": {
        "details": "Map of names and addresses of wrapped tokensShould be used by the back/front-end"
      },
      "wrappedToOriginalTokens": {
        "details": "Map of addresses of wrapped tokens and addresses of original tokens and original chains"
      },
      "wrappedUriToAddress": {
        "details": "Map of token IDs and addresses of wrapped tokenShould be used by the back/front-end"
      }
    },
    "title": "A factory of custom ERC20, ERC721, ERC1155 tokens used in the bridge",
    "version": 1
  },
  "userdoc": {
    "kind": "user",
    "methods": {
      "checkTargetToken(address)": {
        "notice": "Checks if there is a wrapped token in the target chain for the original token "
      },
      "createERC1155Token(string,address,string,address)": {
        "notice": "Creates a new ERC 1155 token to be used in the bridge"
      },
      "createERC20Token(string,address,string,string,uint8,address)": {
        "notice": "Creates a new wrapped ERC20 token on the target chain"
      },
      "createERC721Token(string,address,string,string,address)": {
        "notice": "Creates a new ERC721 token to be used in the bridge"
      },
      "getOriginalToken(address)": {
        "notice": "Returns the name of the original token and the original chain for a wrapped token"
      },
      "getWrappedAddressByName(string)": {
        "notice": "Returns the address of the wrapped token by its name"
      },
      "getWrappedAddressByUri(string)": {
        "notice": "Returns the address of the wrapped token by its URI"
      }
    },
    "version": 1
  },
  "storageLayout": {
    "storage": [
      {
        "astId": 415,
        "contract": "contracts/WrappedTokenFactory.sol:WrappedTokenFactory",
        "label": "_initialized",
        "offset": 0,
        "slot": "0",
        "type": "t_uint8"
      },
      {
        "astId": 418,
        "contract": "contracts/WrappedTokenFactory.sol:WrappedTokenFactory",
        "label": "_initializing",
        "offset": 1,
        "slot": "0",
        "type": "t_bool"
      },
      {
        "astId": 9189,
        "contract": "contracts/WrappedTokenFactory.sol:WrappedTokenFactory",
        "label": "__gap",
        "offset": 0,
        "slot": "1",
        "type": "t_array(t_uint256)100_storage"
      },
      {
        "astId": 9192,
        "contract": "contracts/WrappedTokenFactory.sol:WrappedTokenFactory",
        "label": "ERC20Template",
        "offset": 0,
        "slot": "101",
        "type": "t_address"
      },
      {
        "astId": 9194,
        "contract": "contracts/WrappedTokenFactory.sol:WrappedTokenFactory",
        "label": "ERC721Template",
        "offset": 0,
        "slot": "102",
        "type": "t_address"
      },
      {
        "astId": 9196,
        "contract": "contracts/WrappedTokenFactory.sol:WrappedTokenFactory",
        "label": "ERC1155Template",
        "offset": 0,
        "slot": "103",
        "type": "t_address"
      },
      {
        "astId": 9201,
        "contract": "contracts/WrappedTokenFactory.sol:WrappedTokenFactory",
        "label": "originalToWrappedTokens",
        "offset": 0,
        "slot": "104",
        "type": "t_mapping(t_address,t_address)"
      },
      {
        "astId": 9212,
        "contract": "contracts/WrappedTokenFactory.sol:WrappedTokenFactory",
        "label": "wrappedToOriginalTokens",
        "offset": 0,
        "slot": "105",
        "type": "t_mapping(t_address,t_struct(TokenInfo)9206_storage)"
      },
      {
        "astId": 9217,
        "contract": "contracts/WrappedTokenFactory.sol:WrappedTokenFactory",
        "label": "wrappedNameToAddress",
        "offset": 0,
        "slot": "106",
        "type": "t_mapping(t_string_memory_ptr,t_address)"
      },
      {
        "astId": 9222,
        "contract": "contracts/WrappedTokenFactory.sol:WrappedTokenFactory",
        "label": "wrappedUriToAddress",
        "offset": 0,
        "slot": "107",
        "type": "t_mapping(t_string_memory_ptr,t_address)"
      }
    ],
    "types": {
      "t_address": {
        "encoding": "inplace",
        "label": "address",
        "numberOfBytes": "20"
      },
      "t_array(t_uint256)100_storage": {
        "base": "t_uint256",
        "encoding": "inplace",
        "label": "uint256[100]",
        "numberOfBytes": "3200"
      },
      "t_bool": {
        "encoding": "inplace",
        "label": "bool",
        "numberOfBytes": "1"
      },
      "t_mapping(t_address,t_address)": {
        "encoding": "mapping",
        "key": "t_address",
        "label": "mapping(address => address)",
        "numberOfBytes": "32",
        "value": "t_address"
      },
      "t_mapping(t_address,t_struct(TokenInfo)9206_storage)": {
        "encoding": "mapping",
        "key": "t_address",
        "label": "mapping(address => struct WrappedTokenFactory.TokenInfo)",
        "numberOfBytes": "32",
        "value": "t_struct(TokenInfo)9206_storage"
      },
      "t_mapping(t_string_memory_ptr,t_address)": {
        "encoding": "mapping",
        "key": "t_string_memory_ptr",
        "label": "mapping(string => address)",
        "numberOfBytes": "32",
        "value": "t_address"
      },
      "t_string_memory_ptr": {
        "encoding": "bytes",
        "label": "string",
        "numberOfBytes": "32"
      },
      "t_string_storage": {
        "encoding": "bytes",
        "label": "string",
        "numberOfBytes": "32"
      },
      "t_struct(TokenInfo)9206_storage": {
        "encoding": "inplace",
        "label": "struct WrappedTokenFactory.TokenInfo",
        "members": [
          {
            "astId": 9203,
            "contract": "contracts/WrappedTokenFactory.sol:WrappedTokenFactory",
            "label": "originalChain",
            "offset": 0,
            "slot": "0",
            "type": "t_string_storage"
          },
          {
            "astId": 9205,
            "contract": "contracts/WrappedTokenFactory.sol:WrappedTokenFactory",
            "label": "originalAddress",
            "offset": 0,
            "slot": "1",
            "type": "t_address"
          }
        ],
        "numberOfBytes": "64"
      },
      "t_uint256": {
        "encoding": "inplace",
        "label": "uint256",
        "numberOfBytes": "32"
      },
      "t_uint8": {
        "encoding": "inplace",
        "label": "uint8",
        "numberOfBytes": "1"
      }
    }
  }
}