{
  "address": "0xa06587A30877C44e16B7A83e03AB408aFadFE821",
  "abi": [
    {
      "anonymous": false,
      "inputs": [
        {
          "indexed": false,
          "internalType": "enum IBridge.Assets",
          "name": "assetType",
          "type": "uint8"
        },
        {
          "indexed": true,
          "internalType": "address",
          "name": "sender",
          "type": "address"
        },
        {
          "indexed": false,
          "internalType": "string",
          "name": "receiver",
          "type": "string"
        },
        {
          "indexed": false,
          "internalType": "uint256",
          "name": "amount",
          "type": "uint256"
        },
        {
          "indexed": true,
          "internalType": "address",
          "name": "token",
          "type": "address"
        },
        {
          "indexed": true,
          "internalType": "uint256",
          "name": "tokenId",
          "type": "uint256"
        },
        {
          "indexed": false,
          "internalType": "string",
          "name": "targetChain",
          "type": "string"
        }
      ],
      "name": "Burn",
      "type": "event"
    },
    {
      "anonymous": false,
      "inputs": [
        {
          "indexed": false,
          "internalType": "uint8",
          "name": "version",
          "type": "uint8"
        }
      ],
      "name": "Initialized",
      "type": "event"
    },
    {
      "anonymous": false,
      "inputs": [
        {
          "indexed": false,
          "internalType": "enum IBridge.Assets",
          "name": "assetType",
          "type": "uint8"
        },
        {
          "indexed": true,
          "internalType": "address",
          "name": "sender",
          "type": "address"
        },
        {
          "indexed": false,
          "internalType": "string",
          "name": "receiver",
          "type": "string"
        },
        {
          "indexed": false,
          "internalType": "uint256",
          "name": "amount",
          "type": "uint256"
        },
        {
          "indexed": true,
          "internalType": "address",
          "name": "token",
          "type": "address"
        },
        {
          "indexed": true,
          "internalType": "uint256",
          "name": "tokenId",
          "type": "uint256"
        },
        {
          "indexed": false,
          "internalType": "string",
          "name": "targetChain",
          "type": "string"
        }
      ],
      "name": "Lock",
      "type": "event"
    },
    {
      "anonymous": false,
      "inputs": [
        {
          "indexed": false,
          "internalType": "enum IBridge.Assets",
          "name": "assetType",
          "type": "uint8"
        },
        {
          "indexed": true,
          "internalType": "address",
          "name": "sender",
          "type": "address"
        },
        {
          "indexed": false,
          "internalType": "address",
          "name": "receiver",
          "type": "address"
        },
        {
          "indexed": false,
          "internalType": "uint256",
          "name": "amount",
          "type": "uint256"
        },
        {
          "indexed": true,
          "internalType": "address",
          "name": "token",
          "type": "address"
        },
        {
          "indexed": true,
          "internalType": "uint256",
          "name": "tokenId",
          "type": "uint256"
        },
        {
          "indexed": false,
          "internalType": "string",
          "name": "targetChain",
          "type": "string"
        }
      ],
      "name": "Mint",
      "type": "event"
    },
    {
      "anonymous": false,
      "inputs": [
        {
          "indexed": false,
          "internalType": "string",
          "name": "oldChain",
          "type": "string"
        }
      ],
      "name": "RemoveChain",
      "type": "event"
    },
    {
      "anonymous": false,
      "inputs": [
        {
          "indexed": true,
          "internalType": "bytes32",
          "name": "role",
          "type": "bytes32"
        },
        {
          "indexed": true,
          "internalType": "bytes32",
          "name": "previousAdminRole",
          "type": "bytes32"
        },
        {
          "indexed": true,
          "internalType": "bytes32",
          "name": "newAdminRole",
          "type": "bytes32"
        }
      ],
      "name": "RoleAdminChanged",
      "type": "event"
    },
    {
      "anonymous": false,
      "inputs": [
        {
          "indexed": true,
          "internalType": "bytes32",
          "name": "role",
          "type": "bytes32"
        },
        {
          "indexed": true,
          "internalType": "address",
          "name": "account",
          "type": "address"
        },
        {
          "indexed": true,
          "internalType": "address",
          "name": "sender",
          "type": "address"
        }
      ],
      "name": "RoleGranted",
      "type": "event"
    },
    {
      "anonymous": false,
      "inputs": [
        {
          "indexed": true,
          "internalType": "bytes32",
          "name": "role",
          "type": "bytes32"
        },
        {
          "indexed": true,
          "internalType": "address",
          "name": "account",
          "type": "address"
        },
        {
          "indexed": true,
          "internalType": "address",
          "name": "sender",
          "type": "address"
        }
      ],
      "name": "RoleRevoked",
      "type": "event"
    },
    {
      "anonymous": false,
      "inputs": [
        {
          "indexed": true,
          "internalType": "address",
          "name": "newAdmin",
          "type": "address"
        }
      ],
      "name": "SetAdmin",
      "type": "event"
    },
    {
      "anonymous": false,
      "inputs": [
        {
          "indexed": true,
          "internalType": "uint256",
          "name": "newFeeRateBp",
          "type": "uint256"
        }
      ],
      "name": "SetFeeRate",
      "type": "event"
    },
    {
      "anonymous": false,
      "inputs": [
        {
          "indexed": false,
          "internalType": "string",
          "name": "newChain",
          "type": "string"
        }
      ],
      "name": "SetNewChain",
      "type": "event"
    },
    {
      "anonymous": false,
      "inputs": [
        {
          "indexed": false,
          "internalType": "enum IBridge.Assets",
          "name": "assetType",
          "type": "uint8"
        },
        {
          "indexed": true,
          "internalType": "address",
          "name": "sender",
          "type": "address"
        },
        {
          "indexed": false,
          "internalType": "address",
          "name": "receiver",
          "type": "address"
        },
        {
          "indexed": false,
          "internalType": "uint256",
          "name": "amount",
          "type": "uint256"
        },
        {
          "indexed": true,
          "internalType": "address",
          "name": "token",
          "type": "address"
        },
        {
          "indexed": true,
          "internalType": "uint256",
          "name": "tokenId",
          "type": "uint256"
        },
        {
          "indexed": false,
          "internalType": "string",
          "name": "targetChain",
          "type": "string"
        }
      ],
      "name": "Unlock",
      "type": "event"
    },
    {
      "anonymous": false,
      "inputs": [
        {
          "indexed": true,
          "internalType": "address",
          "name": "receiver",
          "type": "address"
        },
        {
          "indexed": false,
          "internalType": "uint256",
          "name": "amount",
          "type": "uint256"
        }
      ],
      "name": "Withdraw",
      "type": "event"
    },
    {
      "inputs": [],
      "name": "BOT_MESSENGER_ROLE",
      "outputs": [
        {
          "internalType": "bytes32",
          "name": "",
          "type": "bytes32"
        }
      ],
      "stateMutability": "view",
      "type": "function"
    },
    {
      "inputs": [],
      "name": "DEFAULT_ADMIN_ROLE",
      "outputs": [
        {
          "internalType": "bytes32",
          "name": "",
          "type": "bytes32"
        }
      ],
      "stateMutability": "view",
      "type": "function"
    },
    {
      "inputs": [],
      "name": "botMessenger",
      "outputs": [
        {
          "internalType": "address",
          "name": "",
          "type": "address"
        }
      ],
      "stateMutability": "view",
      "type": "function"
    },
    {
      "inputs": [
        {
          "internalType": "enum IBridge.Assets",
          "name": "assetType",
          "type": "uint8"
        },
        {
          "components": [
            {
              "internalType": "uint256",
              "name": "amount",
              "type": "uint256"
            },
            {
              "internalType": "address",
              "name": "token",
              "type": "address"
            },
            {
              "internalType": "uint256",
              "name": "tokenId",
              "type": "uint256"
            },
            {
              "internalType": "string",
              "name": "receiver",
              "type": "string"
            },
            {
              "internalType": "string",
              "name": "targetChain",
              "type": "string"
            },
            {
              "internalType": "uint256",
              "name": "stargateAmountForOneUsd",
              "type": "uint256"
            },
            {
              "internalType": "uint256",
              "name": "transferedTokensAmountForOneUsd",
              "type": "uint256"
            },
            {
              "internalType": "bool",
              "name": "payFeesWithST",
              "type": "bool"
            },
            {
              "internalType": "uint256",
              "name": "nonce",
              "type": "uint256"
            },
            {
              "internalType": "uint8",
              "name": "v",
              "type": "uint8"
            },
            {
              "internalType": "bytes32",
              "name": "r",
              "type": "bytes32"
            },
            {
              "internalType": "bytes32",
              "name": "s",
              "type": "bytes32"
            }
          ],
          "internalType": "struct IBridge.sourceBridgeParams",
          "name": "params",
          "type": "tuple"
        }
      ],
      "name": "burnWithPermit",
      "outputs": [
        {
          "internalType": "bool",
          "name": "",
          "type": "bool"
        }
      ],
      "stateMutability": "nonpayable",
      "type": "function"
    },
    {
      "inputs": [
        {
          "internalType": "uint256",
          "name": "amount",
          "type": "uint256"
        },
        {
          "internalType": "uint256",
          "name": "stargateAmountForOneUsd",
          "type": "uint256"
        },
        {
          "internalType": "bool",
          "name": "payFeesWithST",
          "type": "bool"
        }
      ],
      "name": "calcFeeFixed",
      "outputs": [
        {
          "internalType": "uint256",
          "name": "",
          "type": "uint256"
        }
      ],
      "stateMutability": "view",
      "type": "function"
    },
    {
      "inputs": [
        {
          "internalType": "uint256",
          "name": "amount",
          "type": "uint256"
        },
        {
          "internalType": "uint256",
          "name": "stargateAmountForOneUsd",
          "type": "uint256"
        },
        {
          "internalType": "uint256",
          "name": "transferedTokensAmountForOneUsd",
          "type": "uint256"
        },
        {
          "internalType": "bool",
          "name": "payFeesWithST",
          "type": "bool"
        }
      ],
      "name": "calcFeeScaled",
      "outputs": [
        {
          "internalType": "uint256",
          "name": "",
          "type": "uint256"
        }
      ],
      "stateMutability": "pure",
      "type": "function"
    },
    {
      "inputs": [],
      "name": "chain",
      "outputs": [
        {
          "internalType": "string",
          "name": "",
          "type": "string"
        }
      ],
      "stateMutability": "view",
      "type": "function"
    },
    {
      "inputs": [
        {
          "internalType": "bytes32",
          "name": "role",
          "type": "bytes32"
        }
      ],
      "name": "getRoleAdmin",
      "outputs": [
        {
          "internalType": "bytes32",
          "name": "",
          "type": "bytes32"
        }
      ],
      "stateMutability": "view",
      "type": "function"
    },
    {
      "inputs": [
        {
          "internalType": "bytes32",
          "name": "role",
          "type": "bytes32"
        },
        {
          "internalType": "address",
          "name": "account",
          "type": "address"
        }
      ],
      "name": "grantRole",
      "outputs": [],
      "stateMutability": "nonpayable",
      "type": "function"
    },
    {
      "inputs": [
        {
          "internalType": "bytes32",
          "name": "role",
          "type": "bytes32"
        },
        {
          "internalType": "address",
          "name": "account",
          "type": "address"
        }
      ],
      "name": "hasRole",
      "outputs": [
        {
          "internalType": "bool",
          "name": "",
          "type": "bool"
        }
      ],
      "stateMutability": "view",
      "type": "function"
    },
    {
      "inputs": [
        {
          "internalType": "address",
          "name": "_botMessenger",
          "type": "address"
        },
        {
          "internalType": "address",
          "name": "_stablecoin",
          "type": "address"
        },
        {
          "internalType": "string",
          "name": "_chain",
          "type": "string"
        }
      ],
      "name": "initialize",
      "outputs": [],
      "stateMutability": "nonpayable",
      "type": "function"
    },
    {
      "inputs": [],
      "name": "lastNonce",
      "outputs": [
        {
          "internalType": "uint256",
          "name": "",
          "type": "uint256"
        }
      ],
      "stateMutability": "view",
      "type": "function"
    },
    {
      "inputs": [
        {
          "internalType": "enum IBridge.Assets",
          "name": "assetType",
          "type": "uint8"
        },
        {
          "components": [
            {
              "internalType": "uint256",
              "name": "amount",
              "type": "uint256"
            },
            {
              "internalType": "address",
              "name": "token",
              "type": "address"
            },
            {
              "internalType": "uint256",
              "name": "tokenId",
              "type": "uint256"
            },
            {
              "internalType": "string",
              "name": "receiver",
              "type": "string"
            },
            {
              "internalType": "string",
              "name": "targetChain",
              "type": "string"
            },
            {
              "internalType": "uint256",
              "name": "stargateAmountForOneUsd",
              "type": "uint256"
            },
            {
              "internalType": "uint256",
              "name": "transferedTokensAmountForOneUsd",
              "type": "uint256"
            },
            {
              "internalType": "bool",
              "name": "payFeesWithST",
              "type": "bool"
            },
            {
              "internalType": "uint256",
              "name": "nonce",
              "type": "uint256"
            },
            {
              "internalType": "uint8",
              "name": "v",
              "type": "uint8"
            },
            {
              "internalType": "bytes32",
              "name": "r",
              "type": "bytes32"
            },
            {
              "internalType": "bytes32",
              "name": "s",
              "type": "bytes32"
            }
          ],
          "internalType": "struct IBridge.sourceBridgeParams",
          "name": "params",
          "type": "tuple"
        }
      ],
      "name": "lockWithPermit",
      "outputs": [
        {
          "internalType": "bool",
          "name": "",
          "type": "bool"
        }
      ],
      "stateMutability": "payable",
      "type": "function"
    },
    {
      "inputs": [
        {
          "internalType": "enum IBridge.Assets",
          "name": "assetType",
          "type": "uint8"
        },
        {
          "components": [
            {
              "internalType": "uint256",
              "name": "amount",
              "type": "uint256"
            },
            {
              "internalType": "address",
              "name": "token",
              "type": "address"
            },
            {
              "internalType": "uint256",
              "name": "tokenId",
              "type": "uint256"
            },
            {
              "internalType": "uint256",
              "name": "nonce",
              "type": "uint256"
            },
            {
              "internalType": "uint8",
              "name": "v",
              "type": "uint8"
            },
            {
              "internalType": "bytes32",
              "name": "r",
              "type": "bytes32"
            },
            {
              "internalType": "bytes32",
              "name": "s",
              "type": "bytes32"
            }
          ],
          "internalType": "struct IBridge.targetBridgeParams",
          "name": "params",
          "type": "tuple"
        }
      ],
      "name": "mintWithPermit",
      "outputs": [
        {
          "internalType": "bool",
          "name": "",
          "type": "bool"
        }
      ],
      "stateMutability": "nonpayable",
      "type": "function"
    },
    {
      "inputs": [
        {
          "internalType": "uint256",
          "name": "",
          "type": "uint256"
        }
      ],
      "name": "nonces",
      "outputs": [
        {
          "internalType": "bool",
          "name": "",
          "type": "bool"
        }
      ],
      "stateMutability": "view",
      "type": "function"
    },
    {
      "inputs": [
        {
          "internalType": "address",
          "name": "operator",
          "type": "address"
        },
        {
          "internalType": "address",
          "name": "from",
          "type": "address"
        },
        {
          "internalType": "uint256",
          "name": "tokeid",
          "type": "uint256"
        },
        {
          "internalType": "uint256",
          "name": "amount",
          "type": "uint256"
        },
        {
          "internalType": "bytes",
          "name": "data",
          "type": "bytes"
        }
      ],
      "name": "onERC1155Received",
      "outputs": [
        {
          "internalType": "bytes4",
          "name": "",
          "type": "bytes4"
        }
      ],
      "stateMutability": "nonpayable",
      "type": "function"
    },
    {
      "inputs": [
        {
          "internalType": "address",
          "name": "operator",
          "type": "address"
        },
        {
          "internalType": "address",
          "name": "from",
          "type": "address"
        },
        {
          "internalType": "uint256",
          "name": "tokeid",
          "type": "uint256"
        },
        {
          "internalType": "bytes",
          "name": "data",
          "type": "bytes"
        }
      ],
      "name": "onERC721Received",
      "outputs": [
        {
          "internalType": "bytes4",
          "name": "",
          "type": "bytes4"
        }
      ],
      "stateMutability": "nonpayable",
      "type": "function"
    },
    {
      "inputs": [
        {
          "internalType": "string",
          "name": "oldChain",
          "type": "string"
        }
      ],
      "name": "removeSupportedChain",
      "outputs": [],
      "stateMutability": "nonpayable",
      "type": "function"
    },
    {
      "inputs": [
        {
          "internalType": "bytes32",
          "name": "role",
          "type": "bytes32"
        },
        {
          "internalType": "address",
          "name": "account",
          "type": "address"
        }
      ],
      "name": "renounceRole",
      "outputs": [],
      "stateMutability": "nonpayable",
      "type": "function"
    },
    {
      "inputs": [
        {
          "internalType": "bytes32",
          "name": "role",
          "type": "bytes32"
        },
        {
          "internalType": "address",
          "name": "account",
          "type": "address"
        }
      ],
      "name": "revokeRole",
      "outputs": [],
      "stateMutability": "nonpayable",
      "type": "function"
    },
    {
      "inputs": [
        {
          "internalType": "address",
          "name": "newAdmin",
          "type": "address"
        }
      ],
      "name": "setAdmin",
      "outputs": [],
      "stateMutability": "nonpayable",
      "type": "function"
    },
    {
      "inputs": [
        {
          "internalType": "address",
          "name": "newBotMessenger",
          "type": "address"
        }
      ],
      "name": "setBotMessenger",
      "outputs": [],
      "stateMutability": "nonpayable",
      "type": "function"
    },
    {
      "inputs": [
        {
          "internalType": "address",
          "name": "newStablecoin",
          "type": "address"
        }
      ],
      "name": "setStablecoin",
      "outputs": [],
      "stateMutability": "nonpayable",
      "type": "function"
    },
    {
      "inputs": [
        {
          "internalType": "address",
          "name": "newStargateToken",
          "type": "address"
        }
      ],
      "name": "setStargateToken",
      "outputs": [],
      "stateMutability": "nonpayable",
      "type": "function"
    },
    {
      "inputs": [
        {
          "internalType": "string",
          "name": "newChain",
          "type": "string"
        }
      ],
      "name": "setSupportedChain",
      "outputs": [],
      "stateMutability": "nonpayable",
      "type": "function"
    },
    {
      "inputs": [],
      "name": "stablecoin",
      "outputs": [
        {
          "internalType": "address",
          "name": "",
          "type": "address"
        }
      ],
      "stateMutability": "view",
      "type": "function"
    },
    {
      "inputs": [],
      "name": "stargateToken",
      "outputs": [
        {
          "internalType": "address",
          "name": "",
          "type": "address"
        }
      ],
      "stateMutability": "view",
      "type": "function"
    },
    {
      "inputs": [
        {
          "internalType": "string",
          "name": "",
          "type": "string"
        }
      ],
      "name": "supportedChains",
      "outputs": [
        {
          "internalType": "bool",
          "name": "",
          "type": "bool"
        }
      ],
      "stateMutability": "view",
      "type": "function"
    },
    {
      "inputs": [
        {
          "internalType": "bytes4",
          "name": "interfaceId",
          "type": "bytes4"
        }
      ],
      "name": "supportsInterface",
      "outputs": [
        {
          "internalType": "bool",
          "name": "",
          "type": "bool"
        }
      ],
      "stateMutability": "view",
      "type": "function"
    },
    {
      "inputs": [
        {
          "internalType": "address",
          "name": "",
          "type": "address"
        }
      ],
      "name": "tokenFees",
      "outputs": [
        {
          "internalType": "uint256",
          "name": "",
          "type": "uint256"
        }
      ],
      "stateMutability": "view",
      "type": "function"
    },
    {
      "inputs": [
        {
          "internalType": "enum IBridge.Assets",
          "name": "assetType",
          "type": "uint8"
        },
        {
          "components": [
            {
              "internalType": "uint256",
              "name": "amount",
              "type": "uint256"
            },
            {
              "internalType": "address",
              "name": "token",
              "type": "address"
            },
            {
              "internalType": "uint256",
              "name": "tokenId",
              "type": "uint256"
            },
            {
              "internalType": "uint256",
              "name": "nonce",
              "type": "uint256"
            },
            {
              "internalType": "uint8",
              "name": "v",
              "type": "uint8"
            },
            {
              "internalType": "bytes32",
              "name": "r",
              "type": "bytes32"
            },
            {
              "internalType": "bytes32",
              "name": "s",
              "type": "bytes32"
            }
          ],
          "internalType": "struct IBridge.targetBridgeParams",
          "name": "params",
          "type": "tuple"
        }
      ],
      "name": "unlockWithPermit",
      "outputs": [
        {
          "internalType": "bool",
          "name": "",
          "type": "bool"
        }
      ],
      "stateMutability": "nonpayable",
      "type": "function"
    },
    {
      "inputs": [
        {
          "internalType": "address",
          "name": "token",
          "type": "address"
        },
        {
          "internalType": "uint256",
          "name": "amount",
          "type": "uint256"
        }
      ],
      "name": "withdraw",
      "outputs": [],
      "stateMutability": "nonpayable",
      "type": "function"
    }
  ],
  "transactionHash": "0x3cb95a0ae81c33439a2c0aad8207de606713ac0dc4c132a04aa7b286f69b78cb",
  "args": [],
  "numDeployments": 1,
  "solcInputHash": "7bfef034aa58ef01a1693110ba227afa",
  "bytecode": "0x608060405234801561001057600080fd5b50613b26806100206000396000f3fe6080604052600436106101e35760003560e01c806391d1485411610102578063d547741f11610095578063f17898f711610064578063f17898f71461060c578063f23a6e611461062d578063f3fef3a31461065a578063ff03c8c41461067a57600080fd5b8063d547741f1461058b578063d9a46fbb146105ab578063e088bfc0146105cb578063e9cbd822146105eb57600080fd5b8063ace05f98116100d1578063ace05f9814610509578063ae9faeb214610529578063c763e5a114610549578063d24f62391461056b57600080fd5b806391d14854146104a1578063958b7b4e146104c157806398daf66d146104e1578063a217fddf146104f457600080fd5b80634571e3a61161017a57806363d5079b1161014957806363d5079b146103f15780636c30aaa214610411578063704b6c021461044d57806379968bbc1461046d57600080fd5b80634571e3a61461037a578063465600231461039a57806352631ab4146103ba5780635bd80ca6146103d157600080fd5b80632f2ff15d116101b65780632f2ff15d146102d157806331161e0b146102f357806336568abe1461032c57806339e16d641461034c57600080fd5b806301ffc9a7146101e8578063141a468c1461021d578063150b7a021461024e578063248a9ca314610293575b600080fd5b3480156101f457600080fd5b5061020861020336600461301f565b61069a565b60405190151581526020015b60405180910390f35b34801561022957600080fd5b50610208610238366004613049565b61012f6020526000908152604090205460ff1681565b34801561025a57600080fd5b5061027a6102693660046130c0565b630a85bd0160e11b95945050505050565b6040516001600160e01b03199091168152602001610214565b34801561029f57600080fd5b506102c36102ae366004613049565b60009081526065602052604090206001015490565b604051908152602001610214565b3480156102dd57600080fd5b506102f16102ec366004613133565b6106d1565b005b3480156102ff57600080fd5b5061013054610314906001600160a01b031681565b6040516001600160a01b039091168152602001610214565b34801561033857600080fd5b506102f1610347366004613133565b6106fb565b34801561035857600080fd5b506102c3610367366004613163565b61012e6020526000908152604090205481565b34801561038657600080fd5b506102f1610395366004613223565b61077e565b3480156103a657600080fd5b506102f16103b5366004613285565b6109f3565b3480156103c657600080fd5b506102c36101335481565b3480156103dd57600080fd5b506102086103ec3660046132ce565b610a86565b3480156103fd57600080fd5b506102f161040c366004613285565b610bf2565b34801561041d57600080fd5b5061020861042c366004613285565b805160208183018101805161012d8252928201919093012091525460ff1681565b34801561045957600080fd5b506102f1610468366004613163565b610c7a565b34801561047957600080fd5b506102c37f401e9638419b634c602998da0d7966f95cf0b3bc314e071b21ba0a541b989e5d81565b3480156104ad57600080fd5b506102086104bc366004613133565b610d50565b3480156104cd57600080fd5b506102f16104dc366004613163565b610d7b565b6102086104ef36600461330e565b610e3a565b34801561050057600080fd5b506102c3600081565b34801561051557600080fd5b506102f1610524366004613163565b611291565b34801561053557600080fd5b506102c3610544366004613367565b6112db565b34801561055557600080fd5b5061055e6113c3565b6040516102149190613400565b34801561057757600080fd5b506102086105863660046132ce565b611452565b34801561059757600080fd5b506102f16105a6366004613133565b61158b565b3480156105b757600080fd5b506102086105c636600461330e565b6115b0565b3480156105d757600080fd5b506102f16105e6366004613163565b6118aa565b3480156105f757600080fd5b5061013154610314906001600160a01b031681565b34801561061857600080fd5b5061013254610314906001600160a01b031681565b34801561063957600080fd5b5061027a610648366004613413565b63f23a6e6160e01b9695505050505050565b34801561066657600080fd5b506102f161067536600461348f565b6118f4565b34801561068657600080fd5b506102c36106953660046134bb565b611b5e565b60006001600160e01b03198216637965db0b60e01b14806106cb57506301ffc9a760e01b6001600160e01b03198316145b92915050565b6000828152606560205260409020600101546106ec81611c40565b6106f68383611c4d565b505050565b6001600160a01b03811633146107705760405162461bcd60e51b815260206004820152602f60248201527f416363657373436f6e74726f6c3a2063616e206f6e6c792072656e6f756e636560448201526e103937b632b9903337b91039b2b63360891b60648201526084015b60405180910390fd5b61077a8282611cd3565b5050565b600054610100900460ff161580801561079e5750600054600160ff909116105b806107b85750303b1580156107b8575060005460ff166001145b61081b5760405162461bcd60e51b815260206004820152602e60248201527f496e697469616c697a61626c653a20636f6e747261637420697320616c72656160448201526d191e481a5b9a5d1a585b1a5e995960921b6064820152608401610767565b6000805460ff19166001179055801561083e576000805461ff0019166101001790555b6001600160a01b0384166108b35760405162461bcd60e51b815260206004820152603660248201527f4272696467653a2064656661756c7420626f74206d657373656e6765722063616044820152756e206e6f74206265207a65726f20616464726573732160501b6064820152608401610767565b6001600160a01b03831661091d5760405162461bcd60e51b815260206004820152602b60248201527f4272696467653a20737461626c65636f696e2063616e206e6f74206265207a6560448201526a726f20616464726573732160a81b6064820152608401610767565b610928600033611d3a565b61013080546001600160a01b038087166001600160a01b031992831617909255610131805492861692909116919091179055815161096e90610134906020850190612f86565b50610130546109a7907f401e9638419b634c602998da0d7966f95cf0b3bc314e071b21ba0a541b989e5d906001600160a01b0316611d3a565b80156109ed576000805461ff0019169055604051600181527f7f26b83ff96e1f2b6a682f133852f6798a09c465da95921460cefb38474024989060200160405180910390a15b50505050565b6109fe600033610d50565b610a1a5760405162461bcd60e51b8152600401610767906134f4565b600061012d82604051610a2d9190613537565b908152604051908190036020018120805492151560ff19909316929092179091557f10af96e721b3a4e477e01fd9fb9464be7c57b780da59ea18601c87fbf1437ac190610a7b908390613400565b60405180910390a150565b6000610a90611d44565b60003390506000610b2d82856101348054610aaa90613553565b80601f0160208091040260200160405190810160405280929190818152602001828054610ad690613553565b8015610b235780601f10610af857610100808354040283529160200191610b23565b820191906000526020600020905b815481529060010190602001808311610b0657829003601f168201915b5050505050611d9e565b9050610b57816060860135610b4860a088016080890161359d565b8760a001358860c00135611e17565b610b788583610b6c6040880160208901613163565b6040880135883561205f565b60408401803590610b8c9060208701613163565b6001600160a01b0316836001600160a01b03167fbafa86118be622f121710cad82878e2e567d1cdf9644c3940170b20d7f12bf8588868960000135610134604051610bda94939291906135f2565b60405180910390a46001925050506106cb6001609755565b610bfd600033610d50565b610c195760405162461bcd60e51b8152600401610767906134f4565b600161012d82604051610c2c9190613537565b908152604051908190036020018120805492151560ff19909316929092179091557faf11741ff825b25bdae46209ed372070c66ffe89b1f4b4ae5f9edcea8e333d9490610a7b908390613400565b610c85600033610d50565b610ca15760405162461bcd60e51b8152600401610767906134f4565b6001600160a01b038116610d0e5760405162461bcd60e51b815260206004820152602e60248201527f4272696467653a206e65772061646d696e2063616e206e6f742068617665206160448201526d207a65726f20616464726573732160901b6064820152608401610767565b610d196000826106d1565b6040516001600160a01b038216907f5a272403b402d892977df56625f4164ccaf70ca3863991c43ecfe76a6905b0a190600090a250565b60009182526065602090815260408084206001600160a01b0393909316845291905290205460ff1690565b610d86600033610d50565b610da25760405162461bcd60e51b8152600401610767906134f4565b6001600160a01b038116610e175760405162461bcd60e51b815260206004820152603660248201527f4272696467653a206e657720626f74206d657373656e6765722063616e206e6f6044820152757420686176652061207a65726f20616464726573732160501b6064820152608401610767565b61013080546001600160a01b0319166001600160a01b0392909216919091179055565b6000610e4960808301836136c0565b8080601f0160208091040260200160405190810160405280939291908181526020018383808284376000920191909152505060405161012d9250610e8f91508390613537565b9081526040519081900360200190205460ff16610ebe5760405162461bcd60e51b815260040161076790613707565b610ec6611d44565b6000846003811115610eda57610eda6135ba565b14610f43573415610f435760405162461bcd60e51b815260206004820152602d60248201527f4272696467653a2077726f6e672061737365742c206f6e6c79206e617469766560448201526c206c6f636b2070617961626c6560981b6064820152608401610767565b336000610f4f856125cd565b9050610f7e81610100870135610f6d61014089016101208a0161359d565b886101400135896101600135611e17565b600080876003811115610f9357610f936135ba565b1480610fb057506001876003811115610fae57610fae6135ba565b145b15610fdc57610fd5863560a088013560c08901356105446101008b0160e08c0161374a565b9050610ffa565b610ff7863560a08801356106956101008a0160e08b0161374a565b90505b61100b610100870160e0880161374a565b1561102957610132546110299084906001600160a01b03168361265d565b61103a610100870160e0880161374a565b15801561105857506001876003811115611056576110566135ba565b145b1561107757611077836110716040890160208a01613163565b8361265d565b611088610100870160e0880161374a565b1580156110a6575060008760038111156110a4576110a46135ba565b145b15611176576110b681873561377d565b34101561112b5760405162461bcd60e51b815260206004820152603d60248201527f4272696467653a206e6f7420656e6f756768206e617469766520746f6b656e7360448201527f20776572652073656e7420746f20636f766572207468652066656573210000006064820152608401610767565b8061012e600061114160408a0160208b01613163565b6001600160a01b03166001600160a01b031681526020019081526020016000206000828254611170919061377d565b90915550505b611187610100870160e0880161374a565b1580156111c0575060028760038111156111a3576111a36135ba565b14806111c0575060038760038111156111be576111be6135ba565b145b156111de57610131546111de9084906001600160a01b03168361265d565b6111ff87846111f360408a0160208b01613163565b60408a01358a356126bf565b604086018035906112139060208901613163565b6001600160a01b039081169085167f25c221ba91ec7f6f8d3ac9adca71e94956c4d2b21e8432340d4cfebb7288c3498a61125060608c018c6136c0565b8c3561125f60808f018f6136c0565b604051611271969594939291906137be565b60405180910390a46001945050505061128a6001609755565b5092915050565b61129c600033610d50565b6112b85760405162461bcd60e51b8152600401610767906134f4565b61013280546001600160a01b0319166001600160a01b0392909216919091179055565b600080821561134557836112f060e188613805565b6112fa9190613824565b90506102ee811161130d576102ee61130f565b805b9050613a98811061132257613a98611324565b805b9050620186a06113348683613805565b61133e9190613824565b90506113b8565b8361135a57620186a061133461012c88613805565b8361136761012c88613805565b6113719190613824565b90506103e88111611384576103e8611386565b805b9050614e20811061139957614e2061139b565b805b9050620186a06113ab8583613805565b6113b59190613824565b90505b90505b949350505050565b61013480546113d190613553565b80601f01602080910402602001604051908101604052809291908181526020018280546113fd90613553565b801561144a5780601f1061141f5761010080835404028352916020019161144a565b820191906000526020600020905b81548152906001019060200180831161142d57829003601f168201915b505050505081565b600061145c611d44565b6000836003811115611470576114706135ba565b14156114d35760405162461bcd60e51b815260206004820152602c60248201527f4272696467653a2077726f6e672061737365742c2063616e2774206d696e742060448201526b3730ba34bb32903a37b5b2b760a11b6064820152608401610767565b600033905060006114ed82856101348054610aaa90613553565b9050611508816060860135610b4860a088016080890161359d565b611529858361151d6040880160208901613163565b60408801358835612822565b6040840180359061153d9060208701613163565b6001600160a01b0316836001600160a01b03167f9634234c639878ca546a1a53fcf4fc38bfa7bffb8f00e56e1c0ebed000c5731988868960000135610134604051610bda94939291906135f2565b6000828152606560205260409020600101546115a681611c40565b6106f68383611cd3565b60006115bf60808301836136c0565b8080601f0160208091040260200160405190810160405280939291908181526020018383808284376000920191909152505060405161012d925061160591508390613537565b9081526040519081900360200190205460ff166116345760405162461bcd60e51b815260040161076790613707565b61163c611d44565b6000846003811115611650576116506135ba565b14156116b35760405162461bcd60e51b815260206004820152602c60248201527f4272696467653a2077726f6e672061737365742c2063616e2774206275726e2060448201526b3730ba34bb32903a37b5b2b760a11b6064820152608401610767565b3360006116bf856125cd565b90506116dd81610100870135610f6d61014089016101208a0161359d565b6000808760038111156116f2576116f26135ba565b148061170f5750600187600381111561170d5761170d6135ba565b145b1561173b57611734863560a088013560c08901356105446101008b0160e08c0161374a565b9050611759565b611756863560a08801356106956101008a0160e08b0161374a565b90505b61176a610100870160e0880161374a565b1561178857610132546117889084906001600160a01b03168361265d565b611799610100870160e0880161374a565b1580156117b7575060018760038111156117b5576117b56135ba565b145b156117d0576117d0836110716040890160208a01613163565b6117e1610100870160e0880161374a565b15801561181a575060028760038111156117fd576117fd6135ba565b148061181a57506003876003811115611818576118186135ba565b145b1561183857610131546118389084906001600160a01b03168361265d565b611859878461184d60408a0160208b01613163565b60408a01358a35612916565b6040860180359061186d9060208901613163565b6001600160a01b039081169085167fa3dc7d629c91651fb935be26cbf4f3193d14c6b7e286c96c7f79ad6bb2466e6f8a61125060608c018c6136c0565b6118b5600033610d50565b6118d15760405162461bcd60e51b8152600401610767906134f4565b61013180546001600160a01b0319166001600160a01b0392909216919091179055565b6118fc611d44565b611907600033610d50565b6119235760405162461bcd60e51b8152600401610767906134f4565b6001600160a01b038216600090815261012e60205260409020546119a05760405162461bcd60e51b815260206004820152602e60248201527f4272696467653a206e6f2066656573207765726520636f6c6c6563746564206660448201526d6f72207468697320746f6b656e2160901b6064820152608401610767565b6001600160a01b038216600090815261012e6020526040902054811115611a225760405162461bcd60e51b815260206004820152603060248201527f4272696467653a20616d6f756e74206f66206665657320746f2077697468647260448201526f617720697320746f6f206c617267652160801b6064820152608401610767565b6001600160a01b038216600090815261012e602052604081208054839290611a4b908490613846565b90915550506001600160a01b038216611b0b57604051600090339083908381818185875af1925050503d8060008114611aa0576040519150601f19603f3d011682016040523d82523d6000602084013e611aa5565b606091505b5050905080611b055760405162461bcd60e51b815260206004820152602660248201527f4272696467653a206e617469766520746f6b656e73207769746864726177206660448201526561696c65642160d01b6064820152608401610767565b50611b1f565b611b1f6001600160a01b0383163383612aeb565b60405181815233907f884edad9ce6fa2440d8a54cc123490eb96d2768479d49ff9c7366125a94243649060200160405180910390a261077a6001609755565b6000808215611b9357611b73614e2085613805565b611b7d9086613805565b9050611b8c620186a082613824565b90506113bb565b610131546040805163313ce56760e01b81529051617530926001600160a01b03169163313ce567916004808301926020929190829003018186803b158015611bda57600080fd5b505afa158015611bee573d6000803e3d6000fd5b505050506040513d601f19601f82011682018060405250810190611c12919061385d565b611c1d90600a61395e565b611c279087613805565b611c319190613805565b90506113b8620186a082613824565b611c4a8133612b4e565b50565b611c578282610d50565b61077a5760008281526065602090815260408083206001600160a01b03851684529091529020805460ff19166001179055611c8f3390565b6001600160a01b0316816001600160a01b0316837f2f8788117e7eff1d82e926ec794901d17c78024a50270940304540a733656f0d60405160405180910390a45050565b611cdd8282610d50565b1561077a5760008281526065602090815260408083206001600160a01b0385168085529252808320805460ff1916905551339285917ff6391f5c32d9c69d2a47ea670b442974b53935d1edc7fd64eb21e047a839171b9190a45050565b61077a8282611c4d565b60026097541415611d975760405162461bcd60e51b815260206004820152601f60248201527f5265656e7472616e637947756172643a207265656e7472616e742063616c6c006044820152606401610767565b6002609755565b6000807f65d05d260bf47ac1aa6c5d8364046ce4173e0e5f127655749f9ae586ec4880f5858535611dd56040880160208901613163565b8760400135878960600135604051602001611df6979695949392919061396d565b60408051808303601f19018152919052805160209091012095945050505050565b600084815261012f602052604090205460ff1615611e825760405162461bcd60e51b815260206004820152602260248201527f4272696467653a207265717565737420616c72656164792070726f6365737365604482015261642160f01b6064820152608401610767565b6000611f748660408051808201825260018152603160f81b602080830191825283518085018552600e81526d537461726761746542726964676560901b908201529151902082517f31c569877b7458562e8ccbbd55ce7cacb56f44901719d688433e2a9a04877e65818401527f2c36991225d1a8da1611aee73594202fc2b7a578d8abf67221c3c385b89a16178185015260608101919091524660808201523060a0808301919091528351808303909101815260c08201845280519083012061190160f01b60e083015260e2820152610102808201949094528251808203909401845261012201909152815191012090565b6040805160008082526020820180845284905260ff88169282019290925260608101869052608081018590529192509060019060a0016020604051602081039080840390855afa158015611fcc573d6000803e3d6000fd5b5050604051601f190151610130549092506001600160a01b0380841691161490506120395760405162461bcd60e51b815260206004820152601a60248201527f4272696467653a20696e76616c6964207369676e6174757265210000000000006044820152606401610767565b505050600083815261012f60205260409020805460ff1916600117905550506101335550565b6000856003811115612073576120736135ba565b14156121a457804710156120ef5760405162461bcd60e51b815260206004820152603760248201527f4272696467653a206e6f7420656e6f756768206e617469766520746f6b656e7360448201527f206f6e20746865206272696467652062616c616e6365210000000000000000006064820152608401610767565b6000846001600160a01b03168260405160006040518083038185875af1925050503d806000811461213c576040519150601f19603f3d011682016040523d82523d6000602084013e612141565b606091505b505090508061219e5760405162461bcd60e51b8152602060048201526024808201527f4272696467653a206e617469766520746f6b656e7320756e6c6f636b206661696044820152636c65642160e01b6064820152608401610767565b506125c6565b60018560038111156121b8576121b86135ba565b14156122bd576040516370a0823160e01b815230600482015281906001600160a01b038516906370a082319060240160206040518083038186803b1580156121ff57600080fd5b505afa158015612213573d6000803e3d6000fd5b505050506040513d601f19601f8201168201806040525081019061223791906139c1565b10156122a45760405162461bcd60e51b815260206004820152603660248201527f4272696467653a206e6f7420656e6f75676820455243323020746f6b656e73206044820152756f6e20746865206272696467652062616c616e63652160501b6064820152608401610767565b6122b86001600160a01b0384168583612aeb565b6125c6565b60028560038111156122d1576122d16135ba565b141561242c576040516331a9108f60e11b81526004810183905230906001600160a01b03851690636352211e9060240160206040518083038186803b15801561231957600080fd5b505afa15801561232d573d6000803e3d6000fd5b505050506040513d601f19601f8201168201806040525081019061235191906139da565b6001600160a01b0316146123be5760405162461bcd60e51b815260206004820152602e60248201527f4272696467653a2062726964676520646f65736e2774206f776e20746f6b656e60448201526d207769746820746869732049442160901b6064820152608401610767565b604051632142170760e11b81523060048201526001600160a01b038581166024830152604482018490528416906342842e0e906064015b600060405180830381600087803b15801561240f57600080fd5b505af1158015612423573d6000803e3d6000fd5b505050506125c6565b6003856003811115612440576124406135ba565b141561258857604051627eeac760e11b8152306004820152602481018390526000906001600160a01b0385169062fdd58e9060440160206040518083038186803b15801561248d57600080fd5b505afa1580156124a1573d6000803e3d6000fd5b505050506040513d601f19601f820116820180604052508101906124c591906139c1565b116125385760405162461bcd60e51b815260206004820152603860248201527f4272696467653a206e6f7420656e6f756768204552433131353520746f6b656e60448201527f73206f6e20746865206272696467652062616c616e63652100000000000000006064820152608401610767565b604080518082018252600881526734b0b6ba37b5b2b760c11b60208201529051637921219560e11b81526001600160a01b0385169163f242432a916123f5913091899188918891906004016139f7565b60405162461bcd60e51b8152602060048201526013602482015272109c9a5919d94e881ddc9bdb99c8185cdcd95d606a1b6044820152606401610767565b5050505050565b6000807f0c57230c111c08b3fb7d631c6ea9c697d84e44f91fb497de198e07f8c73a844960a084013560c085013561260b6040870160208801613163565b60408051602081019590955284019290925260608301526001600160a01b0316608082015261010084013560a082015260c00160408051601f1981840301815291905280516020909101209392505050565b6001600160a01b0382161580612671575080155b1561267b57505050565b6001600160a01b038216600090815261012e6020526040812080548392906126a490849061377d565b909155506106f690506001600160a01b038316843084612ba7565b60008560038111156126d3576126d36135ba565b141561273457803410156122b85760405162461bcd60e51b815260206004820152602260248201527f4272696467653a2077726f6e67206e617469766520746f6b656e7320616d6f756044820152611b9d60f21b6064820152608401610767565b6001856003811115612748576127486135ba565b1415612763576122b86001600160a01b038416853084612ba7565b6002856003811115612777576127776135ba565b14156127b857604051632142170760e11b81526001600160a01b038581166004830152306024830152604482018490528416906342842e0e906064016123f5565b60038560038111156127cc576127cc6135ba565b141561258857604080518082018252600881526734b0b6ba37b5b2b760c11b60208201529051637921219560e11b81526001600160a01b0385169163f242432a916123f5918891309188918891906004016139f7565b6001856003811115612836576128366135ba565b1415612871576040516340c10f1960e01b81526001600160a01b038581166004830152602482018390528416906340c10f19906044016123f5565b6002856003811115612885576128856135ba565b14156128c0576040516340c10f1960e01b81526001600160a01b038581166004830152602482018490528416906340c10f19906044016123f5565b60038560038111156128d4576128d46135ba565b141561258857604051630ab714fb60e11b81526001600160a01b038581166004830152602482018490526044820183905284169063156e29f6906064016123f5565b600185600381111561292a5761292a6135ba565b141561296557604051632770a7eb60e21b81526001600160a01b03858116600483015260248201839052841690639dc29fac906044016123f5565b6002856003811115612979576129796135ba565b1415612a95576040516331a9108f60e11b81526004810183905233906001600160a01b03851690636352211e9060240160206040518083038186803b1580156129c157600080fd5b505afa1580156129d5573d6000803e3d6000fd5b505050506040513d601f19601f820116820180604052508101906129f991906139da565b6001600160a01b031614612a685760405162461bcd60e51b815260206004820152603060248201527f4272696467653a2063616e6e6f74206275726e204552433732312c206d73672e60448201526f39b2b73232b9103737ba1037bbb732b960811b6064820152608401610767565b604051630852cd8d60e31b8152600481018390526001600160a01b038416906342966c68906024016123f5565b6003856003811115612aa957612aa96135ba565b141561258857604051637a94c56560e11b81526001600160a01b038581166004830152602482018490526044820183905284169063f5298aca906064016123f5565b6040516001600160a01b0383166024820152604481018290526106f690849063a9059cbb60e01b906064015b60408051601f198184030181529190526020810180516001600160e01b03166001600160e01b031990931692909217909152612bdf565b612b588282610d50565b61077a57612b6581612cb1565b612b70836020612cc3565b604051602001612b81929190613a31565b60408051601f198184030181529082905262461bcd60e51b825261076791600401613400565b6040516001600160a01b03808516602483015283166044820152606481018290526109ed9085906323b872dd60e01b90608401612b17565b6000612c34826040518060400160405280602081526020017f5361666545524332303a206c6f772d6c6576656c2063616c6c206661696c6564815250856001600160a01b0316612e669092919063ffffffff16565b8051909150156106f65780806020019051810190612c529190613aa6565b6106f65760405162461bcd60e51b815260206004820152602a60248201527f5361666545524332303a204552433230206f7065726174696f6e20646964206e6044820152691bdd081cdd58d8d9595960b21b6064820152608401610767565b60606106cb6001600160a01b03831660145b60606000612cd2836002613805565b612cdd90600261377d565b67ffffffffffffffff811115612cf557612cf5613180565b6040519080825280601f01601f191660200182016040528015612d1f576020820181803683370190505b509050600360fc1b81600081518110612d3a57612d3a613ac3565b60200101906001600160f81b031916908160001a905350600f60fb1b81600181518110612d6957612d69613ac3565b60200101906001600160f81b031916908160001a9053506000612d8d846002613805565b612d9890600161377d565b90505b6001811115612e10576f181899199a1a9b1b9c1cb0b131b232b360811b85600f1660108110612dcc57612dcc613ac3565b1a60f81b828281518110612de257612de2613ac3565b60200101906001600160f81b031916908160001a90535060049490941c93612e0981613ad9565b9050612d9b565b508315612e5f5760405162461bcd60e51b815260206004820181905260248201527f537472696e67733a20686578206c656e67746820696e73756666696369656e746044820152606401610767565b9392505050565b60606113bb848460008585600080866001600160a01b03168587604051612e8d9190613537565b60006040518083038185875af1925050503d8060008114612eca576040519150601f19603f3d011682016040523d82523d6000602084013e612ecf565b606091505b5091509150612ee087838387612eeb565b979650505050505050565b60608315612f57578251612f50576001600160a01b0385163b612f505760405162461bcd60e51b815260206004820152601d60248201527f416464726573733a2063616c6c20746f206e6f6e2d636f6e74726163740000006044820152606401610767565b50816113bb565b6113bb8383815115612f6c5781518083602001fd5b8060405162461bcd60e51b81526004016107679190613400565b828054612f9290613553565b90600052602060002090601f016020900481019282612fb45760008555612ffa565b82601f10612fcd57805160ff1916838001178555612ffa565b82800160010185558215612ffa579182015b82811115612ffa578251825591602001919060010190612fdf565b5061300692915061300a565b5090565b5b80821115613006576000815560010161300b565b60006020828403121561303157600080fd5b81356001600160e01b031981168114612e5f57600080fd5b60006020828403121561305b57600080fd5b5035919050565b6001600160a01b0381168114611c4a57600080fd5b60008083601f84011261308957600080fd5b50813567ffffffffffffffff8111156130a157600080fd5b6020830191508360208285010111156130b957600080fd5b9250929050565b6000806000806000608086880312156130d857600080fd5b85356130e381613062565b945060208601356130f381613062565b935060408601359250606086013567ffffffffffffffff81111561311657600080fd5b61312288828901613077565b969995985093965092949392505050565b6000806040838503121561314657600080fd5b82359150602083013561315881613062565b809150509250929050565b60006020828403121561317557600080fd5b8135612e5f81613062565b634e487b7160e01b600052604160045260246000fd5b600082601f8301126131a757600080fd5b813567ffffffffffffffff808211156131c2576131c2613180565b604051601f8301601f19908116603f011681019082821181831017156131ea576131ea613180565b8160405283815286602085880101111561320357600080fd5b836020870160208301376000602085830101528094505050505092915050565b60008060006060848603121561323857600080fd5b833561324381613062565b9250602084013561325381613062565b9150604084013567ffffffffffffffff81111561326f57600080fd5b61327b86828701613196565b9150509250925092565b60006020828403121561329757600080fd5b813567ffffffffffffffff8111156132ae57600080fd5b6113bb84828501613196565b8035600481106132c957600080fd5b919050565b6000808284036101008112156132e357600080fd5b6132ec846132ba565b925060e0601f198201121561330057600080fd5b506020830190509250929050565b6000806040838503121561332157600080fd5b61332a836132ba565b9150602083013567ffffffffffffffff81111561334657600080fd5b8301610180818603121561315857600080fd5b8015158114611c4a57600080fd5b6000806000806080858703121561337d57600080fd5b843593506020850135925060408501359150606085013561339d81613359565b939692955090935050565b60005b838110156133c35781810151838201526020016133ab565b838111156109ed5750506000910152565b600081518084526133ec8160208601602086016133a8565b601f01601f19169290920160200192915050565b602081526000612e5f60208301846133d4565b60008060008060008060a0878903121561342c57600080fd5b863561343781613062565b9550602087013561344781613062565b94506040870135935060608701359250608087013567ffffffffffffffff81111561347157600080fd5b61347d89828a01613077565b979a9699509497509295939492505050565b600080604083850312156134a257600080fd5b82356134ad81613062565b946020939093013593505050565b6000806000606084860312156134d057600080fd5b833592506020840135915060408401356134e981613359565b809150509250925092565b60208082526023908201527f4272696467653a207468652063616c6c6572206973206e6f7420616e2061646d604082015262696e2160e81b606082015260800190565b600082516135498184602087016133a8565b9190910192915050565b600181811c9082168061356757607f821691505b6020821081141561358857634e487b7160e01b600052602260045260246000fd5b50919050565b60ff81168114611c4a57600080fd5b6000602082840312156135af57600080fd5b8135612e5f8161358e565b634e487b7160e01b600052602160045260246000fd5b600481106135ee57634e487b7160e01b600052602160045260246000fd5b9052565b6135fc81866135d0565b6000602060018060a01b03861681840152846040840152608060608401526000845481600182811c91508083168061363557607f831692505b85831081141561365357634e487b7160e01b85526022600452602485fd5b6080880183905260a088018180156136725760018114613683576136ae565b60ff198616825287820196506136ae565b60008b81526020902060005b868110156136a85781548482015290850190890161368f565b83019750505b50949c9b505050505050505050505050565b6000808335601e198436030181126136d757600080fd5b83018035915067ffffffffffffffff8211156136f257600080fd5b6020019150368190038213156130b957600080fd5b60208082526023908201527f4272696467653a2074686520636861696e206973206e6f7420737570706f727460408201526265642160e81b606082015260800190565b60006020828403121561375c57600080fd5b8135612e5f81613359565b634e487b7160e01b600052601160045260246000fd5b6000821982111561379057613790613767565b500190565b81835281816020850137506000828201602090810191909152601f909101601f19169091010190565b6137c881886135d0565b6080602082015260006137df608083018789613795565b85604084015282810360608401526137f8818587613795565b9998505050505050505050565b600081600019048311821515161561381f5761381f613767565b500290565b60008261384157634e487b7160e01b600052601260045260246000fd5b500490565b60008282101561385857613858613767565b500390565b60006020828403121561386f57600080fd5b8151612e5f8161358e565b600181815b808511156138b557816000190482111561389b5761389b613767565b808516156138a857918102915b93841c939080029061387f565b509250929050565b6000826138cc575060016106cb565b816138d9575060006106cb565b81600181146138ef57600281146138f957613915565b60019150506106cb565b60ff84111561390a5761390a613767565b50506001821b6106cb565b5060208310610133831016604e8410600b8410161715613938575081810a6106cb565b613942838361387a565b806000190482111561395657613956613767565b029392505050565b6000612e5f60ff8416836138bd565b8781526001600160a01b03878116602083015260408201879052851660608201526080810184905260e060a082018190526000906139ad908301856133d4565b90508260c083015298975050505050505050565b6000602082840312156139d357600080fd5b5051919050565b6000602082840312156139ec57600080fd5b8151612e5f81613062565b6001600160a01b03868116825285166020820152604081018490526060810183905260a060808201819052600090612ee0908301846133d4565b7f416363657373436f6e74726f6c3a206163636f756e7420000000000000000000815260008351613a698160178501602088016133a8565b7001034b99036b4b9b9b4b733903937b6329607d1b6017918401918201528351613a9a8160288401602088016133a8565b01602801949350505050565b600060208284031215613ab857600080fd5b8151612e5f81613359565b634e487b7160e01b600052603260045260246000fd5b600081613ae857613ae8613767565b50600019019056fea2646970667358221220255c913bb98200e254d38cc95d7a5d66b76a8db59a95d6780f480903e539bfb164736f6c63430008090033",
  "devdoc": {
    "kind": "dev",
    "methods": {
      "burnWithPermit(uint8,(uint256,address,uint256,string,string,uint256,uint256,bool,uint256,uint8,bytes32,bytes32))": {
        "params": {
          "assetType": "0-native, 1-ERC20, 2-ERC721, 3-ERC1155",
          "params": "sourceBridgeParams structure (see definition in IBridge.sol)"
        },
        "returns": {
          "_0": "True if tokens were burned successfully"
        }
      },
      "calcFeeFixed(uint256,uint256,bool)": {
        "params": {
          "amount": "An amount of tokens that were sent (always 1 if ERC721)",
          "payFeesWithST": "true if user choose to pay fees with stargate tokens",
          "stargateAmountForOneUsd": "Stargate tokens (ST) amount for one USD"
        },
        "returns": {
          "_0": "The fee amount in ST or USD depending on user's preferences"
        }
      },
      "calcFeeScaled(uint256,uint256,uint256,bool)": {
        "params": {
          "amount": "An amount of TT tokens that were sent",
          "payFeesWithST": "true if user choose to pay fees with stargate tokens",
          "stargateAmountForOneUsd": "Stargate tokens (ST) amount for one USD",
          "transferedTokensAmountForOneUsd": "TT tokens amount for one USD"
        },
        "returns": {
          "_0": "The fee amount in ST or TT depending on user's preferences"
        }
      },
      "getRoleAdmin(bytes32)": {
        "details": "Returns the admin role that controls `role`. See {grantRole} and {revokeRole}. To change a role's admin, use {_setRoleAdmin}."
      },
      "grantRole(bytes32,address)": {
        "details": "Grants `role` to `account`. If `account` had not been already granted `role`, emits a {RoleGranted} event. Requirements: - the caller must have ``role``'s admin role. May emit a {RoleGranted} event."
      },
      "hasRole(bytes32,address)": {
        "details": "Returns `true` if `account` has been granted `role`."
      },
      "initialize(address,address,string)": {
        "params": {
          "_botMessenger": "The address of bot messenger",
          "_chain": "The chain bridge was deployed to",
          "_stablecoin": "The address of USD stablecoin"
        }
      },
      "lockWithPermit(uint8,(uint256,address,uint256,string,string,uint256,uint256,bool,uint256,uint8,bytes32,bytes32))": {
        "params": {
          "assetType": "0-native, 1-ERC20, 2-ERC721, 3-ERC1155",
          "params": "sourceBridgeParams structure (see definition in IBridge.sol)"
        },
        "returns": {
          "_0": "True if tokens were locked successfully"
        }
      },
      "mintWithPermit(uint8,(uint256,address,uint256,uint256,uint8,bytes32,bytes32))": {
        "params": {
          "assetType": "0-native, 1-ERC20, 2-ERC721, 3-ERC1155",
          "params": "targetBridgeParams structure (see definition in IBridge.sol)"
        },
        "returns": {
          "_0": "True if tokens were minted successfully"
        }
      },
      "onERC1155Received(address,address,uint256,uint256,bytes)": {
        "details": "Should return the selector of itselfWhenever an ERC1155 token is transferred to this contract       via ERC1155.safeTransferFrom this function is called   "
      },
      "onERC721Received(address,address,uint256,bytes)": {
        "details": "Should return the selector of itselfWhenever an ERC721 token is transferred to this contract       via ERC721.safeTransferFrom this function is called   "
      },
      "removeSupportedChain(string)": {
        "params": {
          "oldChain": "The name of the chain"
        }
      },
      "renounceRole(bytes32,address)": {
        "details": "Revokes `role` from the calling account. Roles are often managed via {grantRole} and {revokeRole}: this function's purpose is to provide a mechanism for accounts to lose their privileges if they are compromised (such as when a trusted device is misplaced). If the calling account had been revoked `role`, emits a {RoleRevoked} event. Requirements: - the caller must be `account`. May emit a {RoleRevoked} event."
      },
      "revokeRole(bytes32,address)": {
        "details": "Revokes `role` from `account`. If `account` had been granted `role`, emits a {RoleRevoked} event. Requirements: - the caller must have ``role``'s admin role. May emit a {RoleRevoked} event."
      },
      "setAdmin(address)": {
        "params": {
          "newAdmin": "Address of the admin   "
        }
      },
      "setBotMessenger(address)": {
        "params": {
          "newBotMessenger": "Address of the bot messenger (backend server)   "
        }
      },
      "setStablecoin(address)": {
        "params": {
          "newStablecoin": "Address of the stablecoin"
        }
      },
      "setStargateToken(address)": {
        "params": {
          "newStargateToken": "Address of the stargate token   "
        }
      },
      "setSupportedChain(string)": {
        "params": {
          "newChain": "The name of the chain"
        }
      },
      "supportsInterface(bytes4)": {
        "details": "See {IERC165-supportsInterface}."
      },
      "unlockWithPermit(uint8,(uint256,address,uint256,uint256,uint8,bytes32,bytes32))": {
        "params": {
          "assetType": "0-native, 1-ERC20, 2-ERC721, 3-ERC1155",
          "params": "targetBridgeParams structure (see definition in IBridge.sol)"
        },
        "returns": {
          "_0": "True if tokens were unlocked successfully"
        }
      },
      "withdraw(address,uint256)": {
        "params": {
          "amount": "The amount of fees from a single token to be withdrawn",
          "token": "The address of the token which transfers collected fees"
        }
      }
    },
    "stateVariables": {
      "lastNonce": {
        "details": "Last verified nonce"
      },
      "nonces": {
        "details": "Monitor nonces. Prevent replay attacks"
      },
      "supportedChains": {
        "details": "Names of supported chains"
      },
      "tokenFees": {
        "details": "Monitor fees for ERC20 tokensMap from token address to fees"
      }
    },
    "title": "A bridge contract",
    "version": 1
  },
  "userdoc": {
    "events": {
      "Burn(uint8,address,string,uint256,address,uint256,string)": {
        "notice": "Indicates that tokens were burnt in the target chain"
      },
      "Lock(uint8,address,string,uint256,address,uint256,string)": {
        "notice": "Indicates that tokens were locked in the source chain"
      },
      "Mint(uint8,address,address,uint256,address,uint256,string)": {
        "notice": "Indicates that tokens were minted by permitted user"
      },
      "RemoveChain(string)": {
        "notice": "Indicates that a chain is no longer supported"
      },
      "SetAdmin(address)": {
        "notice": "Indicates that the a admin was set"
      },
      "SetFeeRate(uint256)": {
        "notice": "Indicates that a new fee rate was set"
      },
      "SetNewChain(string)": {
        "notice": "Indicates that a new supported chain was set"
      },
      "Unlock(uint8,address,address,uint256,address,uint256,string)": {
        "notice": "Indicates that tokens were unlocked in the source chain"
      },
      "Withdraw(address,uint256)": {
        "notice": "Indicates that token fees were withdrawn"
      }
    },
    "kind": "user",
    "methods": {
      "burnWithPermit(uint8,(uint256,address,uint256,string,string,uint256,uint256,bool,uint256,uint8,bytes32,bytes32))": {
        "notice": "Burn tokens if the user is permitted to burn"
      },
      "calcFeeFixed(uint256,uint256,bool)": {
        "notice": "Calculates a fee for bridge operations with ERC721 and ERC1155 tokens"
      },
      "calcFeeScaled(uint256,uint256,uint256,bool)": {
        "notice": "Calculates a fee for bridge operations with ERC20 and native tokens"
      },
      "chain()": {
        "notice": "The chain bringe was deployed to"
      },
      "initialize(address,address,string)": {
        "notice": "Initializes internal variables, sets roles"
      },
      "lockWithPermit(uint8,(uint256,address,uint256,string,string,uint256,uint256,bool,uint256,uint8,bytes32,bytes32))": {
        "notice": "Locks tokens if the user is permitted to lock"
      },
      "mintWithPermit(uint8,(uint256,address,uint256,uint256,uint8,bytes32,bytes32))": {
        "notice": "Mint tokens if the user is permitted to mint"
      },
      "onERC1155Received(address,address,uint256,uint256,bytes)": {
        "notice": "Allow this contract to receiver ERC1155 tokens"
      },
      "onERC721Received(address,address,uint256,bytes)": {
        "notice": "Allow this contract to receiver ERC721 tokens"
      },
      "removeSupportedChain(string)": {
        "notice": "Removes a chain supported by the bridge"
      },
      "setAdmin(address)": {
        "notice": "Sets the admin"
      },
      "setBotMessenger(address)": {
        "notice": "Sets the bot messenger"
      },
      "setStablecoin(address)": {
        "notice": "Sets the stablecoin"
      },
      "setStargateToken(address)": {
        "notice": "Sets the stargate token"
      },
      "setSupportedChain(string)": {
        "notice": "Adds a chain supported by the bridge"
      },
      "unlockWithPermit(uint8,(uint256,address,uint256,uint256,uint8,bytes32,bytes32))": {
        "notice": "Unlocks tokens if the user is permitted to unlock"
      },
      "withdraw(address,uint256)": {
        "notice": "Withdraws fees accumulated from a specific token operations"
      }
    },
    "version": 1
  },
  "storageLayout": {
    "storage": [
      {
        "astId": 415,
        "contract": "contracts/Bridge.sol:Bridge",
        "label": "_initialized",
        "offset": 0,
        "slot": "0",
        "type": "t_uint8"
      },
      {
        "astId": 418,
        "contract": "contracts/Bridge.sol:Bridge",
        "label": "_initializing",
        "offset": 1,
        "slot": "0",
        "type": "t_bool"
      },
      {
        "astId": 2007,
        "contract": "contracts/Bridge.sol:Bridge",
        "label": "__gap",
        "offset": 0,
        "slot": "1",
        "type": "t_array(t_uint256)50_storage"
      },
      {
        "astId": 2226,
        "contract": "contracts/Bridge.sol:Bridge",
        "label": "__gap",
        "offset": 0,
        "slot": "51",
        "type": "t_array(t_uint256)50_storage"
      },
      {
        "astId": 39,
        "contract": "contracts/Bridge.sol:Bridge",
        "label": "_roles",
        "offset": 0,
        "slot": "101",
        "type": "t_mapping(t_bytes32,t_struct(RoleData)34_storage)"
      },
      {
        "astId": 334,
        "contract": "contracts/Bridge.sol:Bridge",
        "label": "__gap",
        "offset": 0,
        "slot": "102",
        "type": "t_array(t_uint256)49_storage"
      },
      {
        "astId": 591,
        "contract": "contracts/Bridge.sol:Bridge",
        "label": "_status",
        "offset": 0,
        "slot": "151",
        "type": "t_uint256"
      },
      {
        "astId": 649,
        "contract": "contracts/Bridge.sol:Bridge",
        "label": "__gap",
        "offset": 0,
        "slot": "152",
        "type": "t_array(t_uint256)49_storage"
      },
      {
        "astId": 3484,
        "contract": "contracts/Bridge.sol:Bridge",
        "label": "__gap",
        "offset": 0,
        "slot": "201",
        "type": "t_array(t_uint256)100_storage"
      },
      {
        "astId": 3489,
        "contract": "contracts/Bridge.sol:Bridge",
        "label": "supportedChains",
        "offset": 0,
        "slot": "301",
        "type": "t_mapping(t_string_memory_ptr,t_bool)"
      },
      {
        "astId": 3494,
        "contract": "contracts/Bridge.sol:Bridge",
        "label": "tokenFees",
        "offset": 0,
        "slot": "302",
        "type": "t_mapping(t_address,t_uint256)"
      },
      {
        "astId": 3499,
        "contract": "contracts/Bridge.sol:Bridge",
        "label": "nonces",
        "offset": 0,
        "slot": "303",
        "type": "t_mapping(t_uint256,t_bool)"
      },
      {
        "astId": 3506,
        "contract": "contracts/Bridge.sol:Bridge",
        "label": "botMessenger",
        "offset": 0,
        "slot": "304",
        "type": "t_address"
      },
      {
        "astId": 3508,
        "contract": "contracts/Bridge.sol:Bridge",
        "label": "stablecoin",
        "offset": 0,
        "slot": "305",
        "type": "t_address"
      },
      {
        "astId": 3510,
        "contract": "contracts/Bridge.sol:Bridge",
        "label": "stargateToken",
        "offset": 0,
        "slot": "306",
        "type": "t_address"
      },
      {
        "astId": 3513,
        "contract": "contracts/Bridge.sol:Bridge",
        "label": "lastNonce",
        "offset": 0,
        "slot": "307",
        "type": "t_uint256"
      },
      {
        "astId": 3516,
        "contract": "contracts/Bridge.sol:Bridge",
        "label": "chain",
        "offset": 0,
        "slot": "308",
        "type": "t_string_storage"
      }
    ],
    "types": {
      "t_address": {
        "encoding": "inplace",
        "label": "address",
        "numberOfBytes": "20"
      },
      "t_array(t_uint256)100_storage": {
        "base": "t_uint256",
        "encoding": "inplace",
        "label": "uint256[100]",
        "numberOfBytes": "3200"
      },
      "t_array(t_uint256)49_storage": {
        "base": "t_uint256",
        "encoding": "inplace",
        "label": "uint256[49]",
        "numberOfBytes": "1568"
      },
      "t_array(t_uint256)50_storage": {
        "base": "t_uint256",
        "encoding": "inplace",
        "label": "uint256[50]",
        "numberOfBytes": "1600"
      },
      "t_bool": {
        "encoding": "inplace",
        "label": "bool",
        "numberOfBytes": "1"
      },
      "t_bytes32": {
        "encoding": "inplace",
        "label": "bytes32",
        "numberOfBytes": "32"
      },
      "t_mapping(t_address,t_bool)": {
        "encoding": "mapping",
        "key": "t_address",
        "label": "mapping(address => bool)",
        "numberOfBytes": "32",
        "value": "t_bool"
      },
      "t_mapping(t_address,t_uint256)": {
        "encoding": "mapping",
        "key": "t_address",
        "label": "mapping(address => uint256)",
        "numberOfBytes": "32",
        "value": "t_uint256"
      },
      "t_mapping(t_bytes32,t_struct(RoleData)34_storage)": {
        "encoding": "mapping",
        "key": "t_bytes32",
        "label": "mapping(bytes32 => struct AccessControlUpgradeable.RoleData)",
        "numberOfBytes": "32",
        "value": "t_struct(RoleData)34_storage"
      },
      "t_mapping(t_string_memory_ptr,t_bool)": {
        "encoding": "mapping",
        "key": "t_string_memory_ptr",
        "label": "mapping(string => bool)",
        "numberOfBytes": "32",
        "value": "t_bool"
      },
      "t_mapping(t_uint256,t_bool)": {
        "encoding": "mapping",
        "key": "t_uint256",
        "label": "mapping(uint256 => bool)",
        "numberOfBytes": "32",
        "value": "t_bool"
      },
      "t_string_memory_ptr": {
        "encoding": "bytes",
        "label": "string",
        "numberOfBytes": "32"
      },
      "t_string_storage": {
        "encoding": "bytes",
        "label": "string",
        "numberOfBytes": "32"
      },
      "t_struct(RoleData)34_storage": {
        "encoding": "inplace",
        "label": "struct AccessControlUpgradeable.RoleData",
        "members": [
          {
            "astId": 31,
            "contract": "contracts/Bridge.sol:Bridge",
            "label": "members",
            "offset": 0,
            "slot": "0",
            "type": "t_mapping(t_address,t_bool)"
          },
          {
            "astId": 33,
            "contract": "contracts/Bridge.sol:Bridge",
            "label": "adminRole",
            "offset": 0,
            "slot": "1",
            "type": "t_bytes32"
          }
        ],
        "numberOfBytes": "64"
      },
      "t_uint256": {
        "encoding": "inplace",
        "label": "uint256",
        "numberOfBytes": "32"
      },
      "t_uint8": {
        "encoding": "inplace",
        "label": "uint8",
        "numberOfBytes": "1"
      }
    }
  }
}