{
  "address": "0xbaA1a6BDd15150EAABa48699fD29c8085eDED566",
  "abi": [
    {
      "inputs": [],
      "stateMutability": "nonpayable",
      "type": "constructor"
    },
    {
      "anonymous": false,
      "inputs": [
        {
          "indexed": true,
          "internalType": "address",
          "name": "account",
          "type": "address"
        },
        {
          "indexed": true,
          "internalType": "address",
          "name": "operator",
          "type": "address"
        },
        {
          "indexed": false,
          "internalType": "bool",
          "name": "approved",
          "type": "bool"
        }
      ],
      "name": "ApprovalForAll",
      "type": "event"
    },
    {
      "anonymous": false,
      "inputs": [
        {
          "indexed": true,
          "internalType": "address",
          "name": "from",
          "type": "address"
        },
        {
          "indexed": true,
          "internalType": "uint256",
          "name": "id",
          "type": "uint256"
        },
        {
          "indexed": true,
          "internalType": "uint256",
          "name": "amount",
          "type": "uint256"
        }
      ],
      "name": "Burn",
      "type": "event"
    },
    {
      "anonymous": false,
      "inputs": [
        {
          "indexed": true,
          "internalType": "address",
          "name": "from",
          "type": "address"
        },
        {
          "indexed": true,
          "internalType": "uint256[]",
          "name": "ids",
          "type": "uint256[]"
        },
        {
          "indexed": true,
          "internalType": "uint256[]",
          "name": "amounts",
          "type": "uint256[]"
        }
      ],
      "name": "BurnBatch",
      "type": "event"
    },
    {
      "anonymous": false,
      "inputs": [
        {
          "indexed": false,
          "internalType": "uint8",
          "name": "version",
          "type": "uint8"
        }
      ],
      "name": "Initialized",
      "type": "event"
    },
    {
      "anonymous": false,
      "inputs": [
        {
          "indexed": true,
          "internalType": "address",
          "name": "to",
          "type": "address"
        },
        {
          "indexed": true,
          "internalType": "uint256",
          "name": "tokenId",
          "type": "uint256"
        },
        {
          "indexed": true,
          "internalType": "uint256",
          "name": "amount",
          "type": "uint256"
        }
      ],
      "name": "Mint",
      "type": "event"
    },
    {
      "anonymous": false,
      "inputs": [
        {
          "indexed": true,
          "internalType": "address",
          "name": "to",
          "type": "address"
        },
        {
          "indexed": true,
          "internalType": "uint256[]",
          "name": "ids",
          "type": "uint256[]"
        },
        {
          "indexed": true,
          "internalType": "uint256[]",
          "name": "amounts",
          "type": "uint256[]"
        }
      ],
      "name": "MintBatch",
      "type": "event"
    },
    {
      "anonymous": false,
      "inputs": [
        {
          "indexed": true,
          "internalType": "address",
          "name": "operator",
          "type": "address"
        },
        {
          "indexed": true,
          "internalType": "address",
          "name": "from",
          "type": "address"
        },
        {
          "indexed": true,
          "internalType": "address",
          "name": "to",
          "type": "address"
        },
        {
          "indexed": false,
          "internalType": "uint256[]",
          "name": "ids",
          "type": "uint256[]"
        },
        {
          "indexed": false,
          "internalType": "uint256[]",
          "name": "values",
          "type": "uint256[]"
        }
      ],
      "name": "TransferBatch",
      "type": "event"
    },
    {
      "anonymous": false,
      "inputs": [
        {
          "indexed": true,
          "internalType": "address",
          "name": "operator",
          "type": "address"
        },
        {
          "indexed": true,
          "internalType": "address",
          "name": "from",
          "type": "address"
        },
        {
          "indexed": true,
          "internalType": "address",
          "name": "to",
          "type": "address"
        },
        {
          "indexed": false,
          "internalType": "uint256",
          "name": "id",
          "type": "uint256"
        },
        {
          "indexed": false,
          "internalType": "uint256",
          "name": "value",
          "type": "uint256"
        }
      ],
      "name": "TransferSingle",
      "type": "event"
    },
    {
      "anonymous": false,
      "inputs": [
        {
          "indexed": false,
          "internalType": "string",
          "name": "value",
          "type": "string"
        },
        {
          "indexed": true,
          "internalType": "uint256",
          "name": "id",
          "type": "uint256"
        }
      ],
      "name": "URI",
      "type": "event"
    },
    {
      "inputs": [
        {
          "internalType": "address",
          "name": "account",
          "type": "address"
        },
        {
          "internalType": "uint256",
          "name": "id",
          "type": "uint256"
        }
      ],
      "name": "balanceOf",
      "outputs": [
        {
          "internalType": "uint256",
          "name": "",
          "type": "uint256"
        }
      ],
      "stateMutability": "view",
      "type": "function"
    },
    {
      "inputs": [
        {
          "internalType": "address[]",
          "name": "accounts",
          "type": "address[]"
        },
        {
          "internalType": "uint256[]",
          "name": "ids",
          "type": "uint256[]"
        }
      ],
      "name": "balanceOfBatch",
      "outputs": [
        {
          "internalType": "uint256[]",
          "name": "",
          "type": "uint256[]"
        }
      ],
      "stateMutability": "view",
      "type": "function"
    },
    {
      "inputs": [],
      "name": "bridge",
      "outputs": [
        {
          "internalType": "address",
          "name": "",
          "type": "address"
        }
      ],
      "stateMutability": "view",
      "type": "function"
    },
    {
      "inputs": [
        {
          "internalType": "address",
          "name": "from",
          "type": "address"
        },
        {
          "internalType": "uint256",
          "name": "id",
          "type": "uint256"
        },
        {
          "internalType": "uint256",
          "name": "amount",
          "type": "uint256"
        }
      ],
      "name": "burn",
      "outputs": [],
      "stateMutability": "nonpayable",
      "type": "function"
    },
    {
      "inputs": [
        {
          "internalType": "address",
          "name": "from",
          "type": "address"
        },
        {
          "internalType": "uint256[]",
          "name": "ids",
          "type": "uint256[]"
        },
        {
          "internalType": "uint256[]",
          "name": "amounts",
          "type": "uint256[]"
        }
      ],
      "name": "burnBatch",
      "outputs": [],
      "stateMutability": "nonpayable",
      "type": "function"
    },
    {
      "inputs": [
        {
          "internalType": "string",
          "name": "tokensUri_",
          "type": "string"
        },
        {
          "internalType": "address",
          "name": "bridge_",
          "type": "address"
        }
      ],
      "name": "initialize",
      "outputs": [],
      "stateMutability": "nonpayable",
      "type": "function"
    },
    {
      "inputs": [
        {
          "internalType": "address",
          "name": "account",
          "type": "address"
        },
        {
          "internalType": "address",
          "name": "operator",
          "type": "address"
        }
      ],
      "name": "isApprovedForAll",
      "outputs": [
        {
          "internalType": "bool",
          "name": "",
          "type": "bool"
        }
      ],
      "stateMutability": "view",
      "type": "function"
    },
    {
      "inputs": [
        {
          "internalType": "address",
          "name": "to",
          "type": "address"
        },
        {
          "internalType": "uint256",
          "name": "id",
          "type": "uint256"
        },
        {
          "internalType": "uint256",
          "name": "amount",
          "type": "uint256"
        }
      ],
      "name": "mint",
      "outputs": [],
      "stateMutability": "nonpayable",
      "type": "function"
    },
    {
      "inputs": [
        {
          "internalType": "address",
          "name": "to",
          "type": "address"
        },
        {
          "internalType": "uint256[]",
          "name": "ids",
          "type": "uint256[]"
        },
        {
          "internalType": "uint256[]",
          "name": "amounts",
          "type": "uint256[]"
        }
      ],
      "name": "mintBatch",
      "outputs": [],
      "stateMutability": "nonpayable",
      "type": "function"
    },
    {
      "inputs": [
        {
          "internalType": "address",
          "name": "from",
          "type": "address"
        },
        {
          "internalType": "address",
          "name": "to",
          "type": "address"
        },
        {
          "internalType": "uint256[]",
          "name": "ids",
          "type": "uint256[]"
        },
        {
          "internalType": "uint256[]",
          "name": "amounts",
          "type": "uint256[]"
        },
        {
          "internalType": "bytes",
          "name": "data",
          "type": "bytes"
        }
      ],
      "name": "safeBatchTransferFrom",
      "outputs": [],
      "stateMutability": "nonpayable",
      "type": "function"
    },
    {
      "inputs": [
        {
          "internalType": "address",
          "name": "from",
          "type": "address"
        },
        {
          "internalType": "address",
          "name": "to",
          "type": "address"
        },
        {
          "internalType": "uint256",
          "name": "id",
          "type": "uint256"
        },
        {
          "internalType": "uint256",
          "name": "amount",
          "type": "uint256"
        },
        {
          "internalType": "bytes",
          "name": "data",
          "type": "bytes"
        }
      ],
      "name": "safeTransferFrom",
      "outputs": [],
      "stateMutability": "nonpayable",
      "type": "function"
    },
    {
      "inputs": [
        {
          "internalType": "address",
          "name": "operator",
          "type": "address"
        },
        {
          "internalType": "bool",
          "name": "approved",
          "type": "bool"
        }
      ],
      "name": "setApprovalForAll",
      "outputs": [],
      "stateMutability": "nonpayable",
      "type": "function"
    },
    {
      "inputs": [
        {
          "internalType": "bytes4",
          "name": "interfaceId",
          "type": "bytes4"
        }
      ],
      "name": "supportsInterface",
      "outputs": [
        {
          "internalType": "bool",
          "name": "",
          "type": "bool"
        }
      ],
      "stateMutability": "view",
      "type": "function"
    },
    {
      "inputs": [],
      "name": "tokensUri",
      "outputs": [
        {
          "internalType": "string",
          "name": "",
          "type": "string"
        }
      ],
      "stateMutability": "view",
      "type": "function"
    },
    {
      "inputs": [
        {
          "internalType": "uint256",
          "name": "tokenId",
          "type": "uint256"
        }
      ],
      "name": "uri",
      "outputs": [
        {
          "internalType": "string",
          "name": "",
          "type": "string"
        }
      ],
      "stateMutability": "view",
      "type": "function"
    }
  ],
  "transactionHash": "0x5e6976b97558f9388b6c7f567ec1d8ca18e2d0596322f0d23cba96c1ac752477",
  "args": [],
  "numDeployments": 1,
  "solcInputHash": "401bbafb7c7e7bb4ea17961c25e2d701",
  "bytecode": "0x60a06040819052600060808190526200001b9160039162000064565b503480156200002957600080fd5b5060408051602081019091526000815262000044816200004b565b5062000147565b80516200006090600290602084019062000064565b5050565b82805462000072906200010a565b90600052602060002090601f016020900481019282620000965760008555620000e1565b82601f10620000b157805160ff1916838001178555620000e1565b82800160010185558215620000e1579182015b82811115620000e1578251825591602001919060010190620000c4565b50620000ef929150620000f3565b5090565b5b80821115620000ef5760008155600101620000f4565b600181811c908216806200011f57607f821691505b602082108114156200014157634e487b7160e01b600052602260045260246000fd5b50919050565b6122d680620001576000396000f3fe608060405234801561001057600080fd5b50600436106100f45760003560e01c80637ab4339d11610097578063e78cea9211610066578063e78cea92146101fe578063e985e9c514610228578063f242432a14610264578063f5298aca1461027757600080fd5b80637ab4339d146101bd578063a22cb465146101d0578063a9f898f1146101e3578063d81d0a15146101eb57600080fd5b8063156e29f6116100d3578063156e29f6146101625780632eb2c2d6146101775780634e1273f41461018a5780636b20c454146101aa57600080fd5b8062fdd58e146100f957806301ffc9a71461011f5780630e89341c14610142575b600080fd5b61010c610107366004611744565b61028a565b6040519081526020015b60405180910390f35b61013261012d366004611787565b610320565b6040519015158152602001610116565b6101556101503660046117a4565b610372565b6040516101169190611815565b610175610170366004611828565b610452565b005b6101756101853660046119b1565b6104da565b61019d610198366004611a5b565b610526565b6040516101169190611b61565b6101756101b8366004611b74565b610650565b6101756101cb366004611be8565b6106ef565b6101756101de366004611c4a565b610912565b610155610921565b6101756101f9366004611b74565b6109b3565b6005546201000090046001600160a01b03166040516001600160a01b039091168152602001610116565b610132610236366004611c86565b6001600160a01b03918216600090815260016020908152604080832093909416825291909152205460ff1690565b610175610272366004611cb0565b610a62565b610175610285366004611828565b610aa7565b60006001600160a01b0383166102fa5760405162461bcd60e51b815260206004820152602a60248201527f455243313135353a2061646472657373207a65726f206973206e6f742061207660448201526930b634b21037bbb732b960b11b60648201526084015b60405180910390fd5b506000908152602081815260408083206001600160a01b03949094168352929052205490565b60006001600160e01b03198216636cdb3d1360e11b148061035157506001600160e01b031982166303a24d0760e21b145b8061036c57506301ffc9a760e01b6001600160e01b03198316145b92915050565b60008181526004602052604081208054606092919061039090611d15565b80601f01602080910402602001604051908101604052809291908181526020018280546103bc90611d15565b80156104095780601f106103de57610100808354040283529160200191610409565b820191906000526020600020905b8154815290600101906020018083116103ec57829003601f168201915b5050505050905060008151116104275761042283610b1f565b61044b565b60038160405160200161043b929190611d6c565b6040516020818303038152906040525b9392505050565b6005546201000090046001600160a01b031633146104825760405162461bcd60e51b81526004016102f190611e13565b61049d83838360405180602001604052806000815250610bb3565b8082846001600160a01b03167f4c209b5fc8ad50758f13e2e1088ba56a560dff690a1c6fef26394f4c03821c4f60405160405180910390a4505050565b6001600160a01b0385163314806104f657506104f68533610236565b6105125760405162461bcd60e51b81526004016102f190611e4a565b61051f8585858585610c8d565b5050505050565b6060815183511461058b5760405162461bcd60e51b815260206004820152602960248201527f455243313135353a206163636f756e747320616e6420696473206c656e677468604482015268040dad2e6dac2e8c6d60bb1b60648201526084016102f1565b6000835167ffffffffffffffff8111156105a7576105a761185b565b6040519080825280602002602001820160405280156105d0578160200160208202803683370190505b50905060005b84518110156106485761061b8582815181106105f4576105f4611e99565b602002602001015185838151811061060e5761060e611e99565b602002602001015161028a565b82828151811061062d5761062d611e99565b602090810291909101015261064181611ec5565b90506105d6565b509392505050565b6005546201000090046001600160a01b031633146106805760405162461bcd60e51b81526004016102f190611e13565b61068b838383610e29565b806040516106999190611ee0565b6040518091039020826040516106af9190611ee0565b604051908190038120906001600160a01b038616907fc654fa60d2a625ee021b1ac30960810e81f72997250f9fe91c3c443690c47cdf90600090a4505050565b600554610100900460ff161580801561070f5750600554600160ff909116105b806107295750303b158015610729575060055460ff166001145b61078c5760405162461bcd60e51b815260206004820152602e60248201527f496e697469616c697a61626c653a20636f6e747261637420697320616c72656160448201526d191e481a5b9a5d1a585b1a5e995960921b60648201526084016102f1565b6005805460ff1916600117905580156107af576005805461ff0019166101001790555b60008351116108155760405162461bcd60e51b815260206004820152602c60248201527f455243313135353a20696e697469616c20746f6b656e205552492063616e206e60448201526b6f7420626520656d7074792160a01b60648201526084016102f1565b6001600160a01b0382166108915760405162461bcd60e51b815260206004820152603a60248201527f455243313135353a20696e697469616c2062726964676520616464726573732060448201527f63616e206e6f742062652061207a65726f20616464726573732100000000000060648201526084016102f1565b6005805462010000600160b01b031916620100006001600160a01b0385160217905582516108c690600690602086019061168f565b50801561090d576005805461ff0019169055604051600181527f7f26b83ff96e1f2b6a682f133852f6798a09c465da95921460cefb38474024989060200160405180910390a15b505050565b61091d338383610fb5565b5050565b60606006805461093090611d15565b80601f016020809104026020016040519081016040528092919081815260200182805461095c90611d15565b80156109a95780601f1061097e576101008083540402835291602001916109a9565b820191906000526020600020905b81548152906001019060200180831161098c57829003601f168201915b5050505050905090565b6005546201000090046001600160a01b031633146109e35760405162461bcd60e51b81526004016102f190611e13565b6109fe83838360405180602001604052806000815250611096565b80604051610a0c9190611ee0565b604051809103902082604051610a229190611ee0565b604051908190038120906001600160a01b038616907f7744fed36cc2f077e8639e4f0ede59b6ade28587835e9d5d97a21e186f28479690600090a4505050565b6001600160a01b038516331480610a7e5750610a7e8533610236565b610a9a5760405162461bcd60e51b81526004016102f190611e4a565b61051f85858585856111e1565b6005546201000090046001600160a01b03163314610ad75760405162461bcd60e51b81526004016102f190611e13565b610ae283838361130b565b8082846001600160a01b03167f49995e5dd6158cf69ad3e9777c46755a1a826a446c6416992167462dad033b2a60405160405180910390a4505050565b606060028054610b2e90611d15565b80601f0160208091040260200160405190810160405280929190818152602001828054610b5a90611d15565b8015610ba75780601f10610b7c57610100808354040283529160200191610ba7565b820191906000526020600020905b815481529060010190602001808311610b8a57829003601f168201915b50505050509050919050565b6001600160a01b038416610bd95760405162461bcd60e51b81526004016102f190611f16565b336000610be58561140f565b90506000610bf28561140f565b90506000868152602081815260408083206001600160a01b038b16845290915281208054879290610c24908490611f57565b909155505060408051878152602081018790526001600160a01b03808a1692600092918716917fc3d58168c5ae7397731d063d5bbf3d657854427343f4c083240f7aacaa2d0f62910160405180910390a4610c848360008989898961145a565b50505050505050565b8151835114610cae5760405162461bcd60e51b81526004016102f190611f6f565b6001600160a01b038416610cd45760405162461bcd60e51b81526004016102f190611fb7565b3360005b8451811015610dbb576000858281518110610cf557610cf5611e99565b602002602001015190506000858381518110610d1357610d13611e99565b602090810291909101810151600084815280835260408082206001600160a01b038e168352909352919091205490915081811015610d635760405162461bcd60e51b81526004016102f190611ffc565b6000838152602081815260408083206001600160a01b038e8116855292528083208585039055908b16825281208054849290610da0908490611f57565b9250508190555050505080610db490611ec5565b9050610cd8565b50846001600160a01b0316866001600160a01b0316826001600160a01b03167f4a39dc06d4c0dbc64b70af90fd698a233a518aa5d07e595d983b8c0526c8f7fb8787604051610e0b929190612046565b60405180910390a4610e218187878787876115c5565b505050505050565b6001600160a01b038316610e4f5760405162461bcd60e51b81526004016102f19061206b565b8051825114610e705760405162461bcd60e51b81526004016102f190611f6f565b604080516020810190915260009081905233905b8351811015610f46576000848281518110610ea157610ea1611e99565b602002602001015190506000848381518110610ebf57610ebf611e99565b602090810291909101810151600084815280835260408082206001600160a01b038c168352909352919091205490915081811015610f0f5760405162461bcd60e51b81526004016102f1906120ae565b6000928352602083815260408085206001600160a01b038b1686529091529092209103905580610f3e81611ec5565b915050610e84565b5060006001600160a01b0316846001600160a01b0316826001600160a01b03167f4a39dc06d4c0dbc64b70af90fd698a233a518aa5d07e595d983b8c0526c8f7fb8686604051610f97929190612046565b60405180910390a46040805160208101909152600090525b50505050565b816001600160a01b0316836001600160a01b031614156110295760405162461bcd60e51b815260206004820152602960248201527f455243313135353a2073657474696e6720617070726f76616c20737461747573604482015268103337b91039b2b63360b91b60648201526084016102f1565b6001600160a01b03838116600081815260016020908152604080832094871680845294825291829020805460ff191686151590811790915591519182527f17307eab39ab6107e8899845ad3d59bd9653f200f220920489ca2b5937696c31910160405180910390a3505050565b6001600160a01b0384166110bc5760405162461bcd60e51b81526004016102f190611f16565b81518351146110dd5760405162461bcd60e51b81526004016102f190611f6f565b3360005b8451811015611179578381815181106110fc576110fc611e99565b602002602001015160008087848151811061111957611119611e99565b602002602001015181526020019081526020016000206000886001600160a01b03166001600160a01b0316815260200190815260200160002060008282546111619190611f57565b9091555081905061117181611ec5565b9150506110e1565b50846001600160a01b031660006001600160a01b0316826001600160a01b03167f4a39dc06d4c0dbc64b70af90fd698a233a518aa5d07e595d983b8c0526c8f7fb87876040516111ca929190612046565b60405180910390a461051f816000878787876115c5565b6001600160a01b0384166112075760405162461bcd60e51b81526004016102f190611fb7565b3360006112138561140f565b905060006112208561140f565b90506000868152602081815260408083206001600160a01b038c168452909152902054858110156112635760405162461bcd60e51b81526004016102f190611ffc565b6000878152602081815260408083206001600160a01b038d8116855292528083208985039055908a168252812080548892906112a0908490611f57565b909155505060408051888152602081018890526001600160a01b03808b16928c821692918816917fc3d58168c5ae7397731d063d5bbf3d657854427343f4c083240f7aacaa2d0f62910160405180910390a4611300848a8a8a8a8a61145a565b505050505050505050565b6001600160a01b0383166113315760405162461bcd60e51b81526004016102f19061206b565b33600061133d8461140f565b9050600061134a8461140f565b60408051602080820183526000918290528882528181528282206001600160a01b038b16835290522054909150848110156113975760405162461bcd60e51b81526004016102f1906120ae565b6000868152602081815260408083206001600160a01b038b81168086529184528285208a8703905582518b81529384018a90529092908816917fc3d58168c5ae7397731d063d5bbf3d657854427343f4c083240f7aacaa2d0f62910160405180910390a4604080516020810190915260009052610c84565b6040805160018082528183019092526060916000919060208083019080368337019050509050828160008151811061144957611449611e99565b602090810291909101015292915050565b6001600160a01b0384163b15610e215760405163f23a6e6160e01b81526001600160a01b0385169063f23a6e619061149e90899089908890889088906004016120f2565b602060405180830381600087803b1580156114b857600080fd5b505af19250505080156114e8575060408051601f3d908101601f191682019092526114e591810190612137565b60015b611595576114f4612154565b806308c379a0141561152e5750611509612170565b806115145750611530565b8060405162461bcd60e51b81526004016102f19190611815565b505b60405162461bcd60e51b815260206004820152603460248201527f455243313135353a207472616e7366657220746f206e6f6e20455243313135356044820152732932b1b2b4bb32b91034b6b83632b6b2b73a32b960611b60648201526084016102f1565b6001600160e01b0319811663f23a6e6160e01b14610c845760405162461bcd60e51b81526004016102f1906121fa565b6001600160a01b0384163b15610e215760405163bc197c8160e01b81526001600160a01b0385169063bc197c81906116099089908990889088908890600401612242565b602060405180830381600087803b15801561162357600080fd5b505af1925050508015611653575060408051601f3d908101601f1916820190925261165091810190612137565b60015b61165f576114f4612154565b6001600160e01b0319811663bc197c8160e01b14610c845760405162461bcd60e51b81526004016102f1906121fa565b82805461169b90611d15565b90600052602060002090601f0160209004810192826116bd5760008555611703565b82601f106116d657805160ff1916838001178555611703565b82800160010185558215611703579182015b828111156117035782518255916020019190600101906116e8565b5061170f929150611713565b5090565b5b8082111561170f5760008155600101611714565b80356001600160a01b038116811461173f57600080fd5b919050565b6000806040838503121561175757600080fd5b61176083611728565b946020939093013593505050565b6001600160e01b03198116811461178457600080fd5b50565b60006020828403121561179957600080fd5b813561044b8161176e565b6000602082840312156117b657600080fd5b5035919050565b60005b838110156117d85781810151838201526020016117c0565b83811115610faf5750506000910152565b600081518084526118018160208601602086016117bd565b601f01601f19169290920160200192915050565b60208152600061044b60208301846117e9565b60008060006060848603121561183d57600080fd5b61184684611728565b95602085013595506040909401359392505050565b634e487b7160e01b600052604160045260246000fd5b601f8201601f1916810167ffffffffffffffff811182821017156118975761189761185b565b6040525050565b600067ffffffffffffffff8211156118b8576118b861185b565b5060051b60200190565b600082601f8301126118d357600080fd5b813560206118e08261189e565b6040516118ed8282611871565b83815260059390931b850182019282810191508684111561190d57600080fd5b8286015b848110156119285780358352918301918301611911565b509695505050505050565b600067ffffffffffffffff83111561194d5761194d61185b565b604051611964601f8501601f191660200182611871565b80915083815284848401111561197957600080fd5b83836020830137600060208583010152509392505050565b600082601f8301126119a257600080fd5b61044b83833560208501611933565b600080600080600060a086880312156119c957600080fd5b6119d286611728565b94506119e060208701611728565b9350604086013567ffffffffffffffff808211156119fd57600080fd5b611a0989838a016118c2565b94506060880135915080821115611a1f57600080fd5b611a2b89838a016118c2565b93506080880135915080821115611a4157600080fd5b50611a4e88828901611991565b9150509295509295909350565b60008060408385031215611a6e57600080fd5b823567ffffffffffffffff80821115611a8657600080fd5b818501915085601f830112611a9a57600080fd5b81356020611aa78261189e565b604051611ab48282611871565b83815260059390931b8501820192828101915089841115611ad457600080fd5b948201945b83861015611af957611aea86611728565b82529482019490820190611ad9565b96505086013592505080821115611b0f57600080fd5b50611b1c858286016118c2565b9150509250929050565b600081518084526020808501945080840160005b83811015611b5657815187529582019590820190600101611b3a565b509495945050505050565b60208152600061044b6020830184611b26565b600080600060608486031215611b8957600080fd5b611b9284611728565b9250602084013567ffffffffffffffff80821115611baf57600080fd5b611bbb878388016118c2565b93506040860135915080821115611bd157600080fd5b50611bde868287016118c2565b9150509250925092565b60008060408385031215611bfb57600080fd5b823567ffffffffffffffff811115611c1257600080fd5b8301601f81018513611c2357600080fd5b611c3285823560208401611933565b925050611c4160208401611728565b90509250929050565b60008060408385031215611c5d57600080fd5b611c6683611728565b915060208301358015158114611c7b57600080fd5b809150509250929050565b60008060408385031215611c9957600080fd5b611ca283611728565b9150611c4160208401611728565b600080600080600060a08688031215611cc857600080fd5b611cd186611728565b9450611cdf60208701611728565b93506040860135925060608601359150608086013567ffffffffffffffff811115611d0957600080fd5b611a4e88828901611991565b600181811c90821680611d2957607f821691505b60208210811415611d4a57634e487b7160e01b600052602260045260246000fd5b50919050565b60008151611d628185602086016117bd565b9290920192915050565b600080845481600182811c915080831680611d8857607f831692505b6020808410821415611da857634e487b7160e01b86526022600452602486fd5b818015611dbc5760018114611dcd57611dfa565b60ff19861689528489019650611dfa565b60008b81526020902060005b86811015611df25781548b820152908501908301611dd9565b505084890196505b505050505050611e0a8185611d50565b95945050505050565b6020808252601e908201527f546f6b656e3a2063616c6c6572206973206e6f74206120627269646765210000604082015260600190565b6020808252602f908201527f455243313135353a2063616c6c6572206973206e6f7420746f6b656e206f776e60408201526e195c881b9bdc88185c1c1c9bdd9959608a1b606082015260800190565b634e487b7160e01b600052603260045260246000fd5b634e487b7160e01b600052601160045260246000fd5b6000600019821415611ed957611ed9611eaf565b5060010190565b815160009082906020808601845b83811015611f0a57815185529382019390820190600101611eee565b50929695505050505050565b60208082526021908201527f455243313135353a206d696e7420746f20746865207a65726f206164647265736040820152607360f81b606082015260800190565b60008219821115611f6a57611f6a611eaf565b500190565b60208082526028908201527f455243313135353a2069647320616e6420616d6f756e7473206c656e677468206040820152670dad2e6dac2e8c6d60c31b606082015260800190565b60208082526025908201527f455243313135353a207472616e7366657220746f20746865207a65726f206164604082015264647265737360d81b606082015260800190565b6020808252602a908201527f455243313135353a20696e73756666696369656e742062616c616e636520666f60408201526939103a3930b739b332b960b11b606082015260800190565b6040815260006120596040830185611b26565b8281036020840152611e0a8185611b26565b60208082526023908201527f455243313135353a206275726e2066726f6d20746865207a65726f206164647260408201526265737360e81b606082015260800190565b60208082526024908201527f455243313135353a206275726e20616d6f756e7420657863656564732062616c604082015263616e636560e01b606082015260800190565b6001600160a01b03868116825285166020820152604081018490526060810183905260a06080820181905260009061212c908301846117e9565b979650505050505050565b60006020828403121561214957600080fd5b815161044b8161176e565b600060033d111561216d5760046000803e5060005160e01c5b90565b600060443d101561217e5790565b6040516003193d81016004833e81513d67ffffffffffffffff81602484011181841117156121ae57505050505090565b82850191508151818111156121c65750505050505090565b843d87010160208285010111156121e05750505050505090565b6121ef60208286010187611871565b509095945050505050565b60208082526028908201527f455243313135353a204552433131353552656365697665722072656a656374656040820152676420746f6b656e7360c01b606082015260800190565b6001600160a01b0386811682528516602082015260a06040820181905260009061226e90830186611b26565b82810360608401526122808186611b26565b9050828103608084015261229481856117e9565b9897505050505050505056fea264697066735822122043987ab26253e9d25c37291d654e2894a6e1094a1ebcf0ca0c6183e479e76e6964736f6c63430008090033",
  "devdoc": {
    "kind": "dev",
    "methods": {
      "balanceOf(address,uint256)": {
        "details": "See {IERC1155-balanceOf}. Requirements: - `account` cannot be the zero address."
      },
      "balanceOfBatch(address[],uint256[])": {
        "details": "See {IERC1155-balanceOfBatch}. Requirements: - `accounts` and `ids` must have the same length."
      },
      "bridge()": {
        "returns": {
          "_0": "The address of the bridge contract"
        }
      },
      "burn(address,uint256,uint256)": {
        "params": {
          "amount": "The amount of tokens to be burnt",
          "from": "The account holding tokens to be burnt",
          "id": "The token type ID"
        }
      },
      "burnBatch(address,uint256[],uint256[])": {
        "params": {
          "amounts": "The array of amounts of tokens to be burnt",
          "from": "The account holding tokens to be burnt",
          "ids": "The array of token type IDs"
        }
      },
      "constructor": {
        "details": "Creates an \"empty\" template token that will be cloned in the future"
      },
      "initialize(string,address)": {
        "details": "Upgrades an \"empty\" template. Initializes internal variables. ",
        "params": {
          "bridge_": "The address of the bridge of the tokens "
        }
      },
      "isApprovedForAll(address,address)": {
        "details": "See {IERC1155-isApprovedForAll}."
      },
      "mint(address,uint256,uint256)": {
        "params": {
          "amount": "The amount of tokens to be minted",
          "id": "The ID of the token type",
          "to": "The receiver of tokens"
        }
      },
      "mintBatch(address,uint256[],uint256[])": {
        "params": {
          "amounts": "The array of amount of tokens of each token type",
          "ids": "The array of token types IDs",
          "to": "The receiver of tokens"
        }
      },
      "safeBatchTransferFrom(address,address,uint256[],uint256[],bytes)": {
        "details": "See {IERC1155-safeBatchTransferFrom}."
      },
      "safeTransferFrom(address,address,uint256,uint256,bytes)": {
        "details": "See {IERC1155-safeTransferFrom}."
      },
      "setApprovalForAll(address,bool)": {
        "details": "See {IERC1155-setApprovalForAll}."
      },
      "supportsInterface(bytes4)": {
        "details": "See {IERC165-supportsInterface}."
      },
      "tokensUri()": {
        "returns": {
          "_0": "The URI of tokens"
        }
      },
      "uri(uint256)": {
        "details": "See {IERC1155MetadataURI-uri}. This implementation returns the concatenation of the `_baseURI` and the token-specific uri if the latter is set This enables the following behaviors: - if `_tokenURIs[tokenId]` is set, then the result is the concatenation   of `_baseURI` and `_tokenURIs[tokenId]` (keep in mind that `_baseURI`   is empty per default); - if `_tokenURIs[tokenId]` is NOT set then we fallback to `super.uri()`   which in most cases will contain `ERC1155._uri`; - if `_tokenURIs[tokenId]` is NOT set, and if the parents do not have a   uri value set, then the result is empty."
      }
    },
    "title": "A custom ERC1155 contract used in the bridge",
    "version": 1
  },
  "userdoc": {
    "events": {
      "Burn(address,uint256,uint256)": {
        "notice": "Is emitted on every burn of the token"
      },
      "BurnBatch(address,uint256[],uint256[])": {
        "notice": "Is emitted on everu burn of the batch of tokens"
      },
      "Mint(address,uint256,uint256)": {
        "notice": "Is emitted on every mint of the token"
      },
      "MintBatch(address,uint256[],uint256[])": {
        "notice": "Is emitted on every mint of batch of tokens"
      }
    },
    "kind": "user",
    "methods": {
      "bridge()": {
        "notice": "Returns the address of the bridge contract"
      },
      "burn(address,uint256,uint256)": {
        "notice": "Destroys tokens of specific token type"
      },
      "burnBatch(address,uint256[],uint256[])": {
        "notice": "Destroys a batch (batches) of tokens of specific type (types)"
      },
      "mint(address,uint256,uint256)": {
        "notice": "Creates amount tokens of specific type and assigns them to the user"
      },
      "mintBatch(address,uint256[],uint256[])": {
        "notice": "Creates a batch (batches) of tokens of specific type (types) and assigns them to the user"
      },
      "tokensUri()": {
        "notice": "Returns the URI of tokens"
      }
    },
    "version": 1
  },
  "storageLayout": {
    "storage": [
      {
        "astId": 3210,
        "contract": "contracts/WrappedERC1155.sol:WrappedERC1155",
        "label": "_balances",
        "offset": 0,
        "slot": "0",
        "type": "t_mapping(t_uint256,t_mapping(t_address,t_uint256))"
      },
      {
        "astId": 3216,
        "contract": "contracts/WrappedERC1155.sol:WrappedERC1155",
        "label": "_operatorApprovals",
        "offset": 0,
        "slot": "1",
        "type": "t_mapping(t_address,t_mapping(t_address,t_bool))"
      },
      {
        "astId": 3218,
        "contract": "contracts/WrappedERC1155.sol:WrappedERC1155",
        "label": "_uri",
        "offset": 0,
        "slot": "2",
        "type": "t_string_storage"
      },
      {
        "astId": 4583,
        "contract": "contracts/WrappedERC1155.sol:WrappedERC1155",
        "label": "_baseURI",
        "offset": 0,
        "slot": "3",
        "type": "t_string_storage"
      },
      {
        "astId": 4587,
        "contract": "contracts/WrappedERC1155.sol:WrappedERC1155",
        "label": "_tokenURIs",
        "offset": 0,
        "slot": "4",
        "type": "t_mapping(t_uint256,t_string_storage)"
      },
      {
        "astId": 415,
        "contract": "contracts/WrappedERC1155.sol:WrappedERC1155",
        "label": "_initialized",
        "offset": 0,
        "slot": "5",
        "type": "t_uint8"
      },
      {
        "astId": 418,
        "contract": "contracts/WrappedERC1155.sol:WrappedERC1155",
        "label": "_initializing",
        "offset": 1,
        "slot": "5",
        "type": "t_bool"
      },
      {
        "astId": 8627,
        "contract": "contracts/WrappedERC1155.sol:WrappedERC1155",
        "label": "_bridge",
        "offset": 2,
        "slot": "5",
        "type": "t_address"
      },
      {
        "astId": 8629,
        "contract": "contracts/WrappedERC1155.sol:WrappedERC1155",
        "label": "_tokenUri",
        "offset": 0,
        "slot": "6",
        "type": "t_string_storage"
      }
    ],
    "types": {
      "t_address": {
        "encoding": "inplace",
        "label": "address",
        "numberOfBytes": "20"
      },
      "t_bool": {
        "encoding": "inplace",
        "label": "bool",
        "numberOfBytes": "1"
      },
      "t_mapping(t_address,t_bool)": {
        "encoding": "mapping",
        "key": "t_address",
        "label": "mapping(address => bool)",
        "numberOfBytes": "32",
        "value": "t_bool"
      },
      "t_mapping(t_address,t_mapping(t_address,t_bool))": {
        "encoding": "mapping",
        "key": "t_address",
        "label": "mapping(address => mapping(address => bool))",
        "numberOfBytes": "32",
        "value": "t_mapping(t_address,t_bool)"
      },
      "t_mapping(t_address,t_uint256)": {
        "encoding": "mapping",
        "key": "t_address",
        "label": "mapping(address => uint256)",
        "numberOfBytes": "32",
        "value": "t_uint256"
      },
      "t_mapping(t_uint256,t_mapping(t_address,t_uint256))": {
        "encoding": "mapping",
        "key": "t_uint256",
        "label": "mapping(uint256 => mapping(address => uint256))",
        "numberOfBytes": "32",
        "value": "t_mapping(t_address,t_uint256)"
      },
      "t_mapping(t_uint256,t_string_storage)": {
        "encoding": "mapping",
        "key": "t_uint256",
        "label": "mapping(uint256 => string)",
        "numberOfBytes": "32",
        "value": "t_string_storage"
      },
      "t_string_storage": {
        "encoding": "bytes",
        "label": "string",
        "numberOfBytes": "32"
      },
      "t_uint256": {
        "encoding": "inplace",
        "label": "uint256",
        "numberOfBytes": "32"
      },
      "t_uint8": {
        "encoding": "inplace",
        "label": "uint8",
        "numberOfBytes": "1"
      }
    }
  }
}