{
  "address": "0xe1065F5eD9d0C1C57b0036332Cd06FEDc5F962D8",
  "abi": [
    {
      "anonymous": false,
      "inputs": [
        {
          "indexed": true,
          "internalType": "address",
          "name": "owner",
          "type": "address"
        },
        {
          "indexed": true,
          "internalType": "address",
          "name": "spender",
          "type": "address"
        },
        {
          "indexed": false,
          "internalType": "uint256",
          "name": "value",
          "type": "uint256"
        }
      ],
      "name": "Approval",
      "type": "event"
    },
    {
      "anonymous": false,
      "inputs": [
        {
          "indexed": true,
          "internalType": "address",
          "name": "account",
          "type": "address"
        },
        {
          "indexed": false,
          "internalType": "uint256",
          "name": "amount",
          "type": "uint256"
        }
      ],
      "name": "Burn",
      "type": "event"
    },
    {
      "anonymous": false,
      "inputs": [
        {
          "indexed": false,
          "internalType": "uint8",
          "name": "version",
          "type": "uint8"
        }
      ],
      "name": "Initialized",
      "type": "event"
    },
    {
      "anonymous": false,
      "inputs": [
        {
          "indexed": true,
          "internalType": "address",
          "name": "account",
          "type": "address"
        },
        {
          "indexed": false,
          "internalType": "uint256",
          "name": "amount",
          "type": "uint256"
        }
      ],
      "name": "Mint",
      "type": "event"
    },
    {
      "anonymous": false,
      "inputs": [
        {
          "indexed": true,
          "internalType": "address",
          "name": "from",
          "type": "address"
        },
        {
          "indexed": true,
          "internalType": "address",
          "name": "to",
          "type": "address"
        },
        {
          "indexed": false,
          "internalType": "uint256",
          "name": "value",
          "type": "uint256"
        }
      ],
      "name": "Transfer",
      "type": "event"
    },
    {
      "inputs": [
        {
          "internalType": "address",
          "name": "owner",
          "type": "address"
        },
        {
          "internalType": "address",
          "name": "spender",
          "type": "address"
        }
      ],
      "name": "allowance",
      "outputs": [
        {
          "internalType": "uint256",
          "name": "",
          "type": "uint256"
        }
      ],
      "stateMutability": "view",
      "type": "function"
    },
    {
      "inputs": [
        {
          "internalType": "address",
          "name": "spender",
          "type": "address"
        },
        {
          "internalType": "uint256",
          "name": "amount",
          "type": "uint256"
        }
      ],
      "name": "approve",
      "outputs": [
        {
          "internalType": "bool",
          "name": "",
          "type": "bool"
        }
      ],
      "stateMutability": "nonpayable",
      "type": "function"
    },
    {
      "inputs": [
        {
          "internalType": "address",
          "name": "account",
          "type": "address"
        }
      ],
      "name": "balanceOf",
      "outputs": [
        {
          "internalType": "uint256",
          "name": "",
          "type": "uint256"
        }
      ],
      "stateMutability": "view",
      "type": "function"
    },
    {
      "inputs": [],
      "name": "bridge",
      "outputs": [
        {
          "internalType": "address",
          "name": "",
          "type": "address"
        }
      ],
      "stateMutability": "view",
      "type": "function"
    },
    {
      "inputs": [
        {
          "internalType": "address",
          "name": "from",
          "type": "address"
        },
        {
          "internalType": "uint256",
          "name": "amount",
          "type": "uint256"
        }
      ],
      "name": "burn",
      "outputs": [],
      "stateMutability": "nonpayable",
      "type": "function"
    },
    {
      "inputs": [],
      "name": "decimals",
      "outputs": [
        {
          "internalType": "uint8",
          "name": "",
          "type": "uint8"
        }
      ],
      "stateMutability": "view",
      "type": "function"
    },
    {
      "inputs": [
        {
          "internalType": "address",
          "name": "spender",
          "type": "address"
        },
        {
          "internalType": "uint256",
          "name": "subtractedValue",
          "type": "uint256"
        }
      ],
      "name": "decreaseAllowance",
      "outputs": [
        {
          "internalType": "bool",
          "name": "",
          "type": "bool"
        }
      ],
      "stateMutability": "nonpayable",
      "type": "function"
    },
    {
      "inputs": [
        {
          "internalType": "address",
          "name": "spender",
          "type": "address"
        },
        {
          "internalType": "uint256",
          "name": "addedValue",
          "type": "uint256"
        }
      ],
      "name": "increaseAllowance",
      "outputs": [
        {
          "internalType": "bool",
          "name": "",
          "type": "bool"
        }
      ],
      "stateMutability": "nonpayable",
      "type": "function"
    },
    {
      "inputs": [
        {
          "internalType": "string",
          "name": "name_",
          "type": "string"
        },
        {
          "internalType": "string",
          "name": "symbol_",
          "type": "string"
        },
        {
          "internalType": "uint8",
          "name": "decimals_",
          "type": "uint8"
        },
        {
          "internalType": "address",
          "name": "bridge_",
          "type": "address"
        }
      ],
      "name": "initialize",
      "outputs": [],
      "stateMutability": "nonpayable",
      "type": "function"
    },
    {
      "inputs": [
        {
          "internalType": "address",
          "name": "to",
          "type": "address"
        },
        {
          "internalType": "uint256",
          "name": "amount",
          "type": "uint256"
        }
      ],
      "name": "mint",
      "outputs": [],
      "stateMutability": "nonpayable",
      "type": "function"
    },
    {
      "inputs": [],
      "name": "name",
      "outputs": [
        {
          "internalType": "string",
          "name": "",
          "type": "string"
        }
      ],
      "stateMutability": "view",
      "type": "function"
    },
    {
      "inputs": [],
      "name": "symbol",
      "outputs": [
        {
          "internalType": "string",
          "name": "",
          "type": "string"
        }
      ],
      "stateMutability": "view",
      "type": "function"
    },
    {
      "inputs": [],
      "name": "totalSupply",
      "outputs": [
        {
          "internalType": "uint256",
          "name": "",
          "type": "uint256"
        }
      ],
      "stateMutability": "view",
      "type": "function"
    },
    {
      "inputs": [
        {
          "internalType": "address",
          "name": "to",
          "type": "address"
        },
        {
          "internalType": "uint256",
          "name": "amount",
          "type": "uint256"
        }
      ],
      "name": "transfer",
      "outputs": [
        {
          "internalType": "bool",
          "name": "",
          "type": "bool"
        }
      ],
      "stateMutability": "nonpayable",
      "type": "function"
    },
    {
      "inputs": [
        {
          "internalType": "address",
          "name": "from",
          "type": "address"
        },
        {
          "internalType": "address",
          "name": "to",
          "type": "address"
        },
        {
          "internalType": "uint256",
          "name": "amount",
          "type": "uint256"
        }
      ],
      "name": "transferFrom",
      "outputs": [
        {
          "internalType": "bool",
          "name": "",
          "type": "bool"
        }
      ],
      "stateMutability": "nonpayable",
      "type": "function"
    }
  ],
  "transactionHash": "0x02637f654a8f24e1e42f668366c17c177803dff4cb52ccb7a2d3263027b1dc94",
  "args": [],
  "numDeployments": 1,
  "solcInputHash": "401bbafb7c7e7bb4ea17961c25e2d701",
  "bytecode": "0x608060405234801561001057600080fd5b50611128806100206000396000f3fe608060405234801561001057600080fd5b50600436106100f55760003560e01c806370a0823111610097578063a9059cbb11610066578063a9059cbb146101fe578063dd62ed3e14610211578063de7ea79d14610224578063e78cea921461023757600080fd5b806370a08231146101a757806395d89b41146101d05780639dc29fac146101d8578063a457c2d7146101eb57600080fd5b806323b872dd116100d357806323b872dd1461014d578063313ce56714610160578063395093511461017f57806340c10f191461019257600080fd5b806306fdde03146100fa578063095ea7b31461011857806318160ddd1461013b575b600080fd5b610102610252565b60405161010f9190610e35565b60405180910390f35b61012b610126366004610ea6565b6102e4565b604051901515815260200161010f565b6035545b60405190815260200161010f565b61012b61015b366004610ed0565b6102fc565b606554600160a01b900460ff1660405160ff909116815260200161010f565b61012b61018d366004610ea6565b610320565b6101a56101a0366004610ea6565b610342565b005b61013f6101b5366004610f0c565b6001600160a01b031660009081526033602052604090205490565b6101026103f2565b6101a56101e6366004610ea6565b610401565b61012b6101f9366004610ea6565b6104a0565b61012b61020c366004610ea6565b61051b565b61013f61021f366004610f2e565b610529565b6101a5610232366004611004565b610554565b6065546040516001600160a01b03909116815260200161010f565b60606066805461026190611091565b80601f016020809104026020016040519081016040528092919081815260200182805461028d90611091565b80156102da5780601f106102af576101008083540402835291602001916102da565b820191906000526020600020905b8154815290600101906020018083116102bd57829003601f168201915b5050505050905090565b6000336102f2818585610865565b5060019392505050565b60003361030a85828561098a565b610315858585610a04565b506001949350505050565b6000336102f28185856103338383610529565b61033d91906110cc565b610865565b6065546001600160a01b031633146103a15760405162461bcd60e51b815260206004820152601e60248201527f546f6b656e3a2063616c6c6572206973206e6f7420612062726964676521000060448201526064015b60405180910390fd5b6103ab8282610baf565b816001600160a01b03167f0f6798a560793a54c3bcfe86a93cde1e73087d944c0ea20544137d4121396885826040516103e691815260200190565b60405180910390a25050565b60606067805461026190611091565b6065546001600160a01b0316331461045b5760405162461bcd60e51b815260206004820152601e60248201527f546f6b656e3a2063616c6c6572206973206e6f742061206272696467652100006044820152606401610398565b6104658282610c70565b816001600160a01b03167fcc16f5dbb4873280815c1ee09dbd06736cffcc184412cf7a71a0fdb75d397ca5826040516103e691815260200190565b600033816104ae8286610529565b90508381101561050e5760405162461bcd60e51b815260206004820152602560248201527f45524332303a2064656372656173656420616c6c6f77616e63652062656c6f77604482015264207a65726f60d81b6064820152608401610398565b6103158286868403610865565b6000336102f2818585610a04565b6001600160a01b03918216600090815260346020908152604080832093909416825291909152205490565b600054610100900460ff16158080156105745750600054600160ff909116105b8061058e5750303b15801561058e575060005460ff166001145b6105f15760405162461bcd60e51b815260206004820152602e60248201527f496e697469616c697a61626c653a20636f6e747261637420697320616c72656160448201526d191e481a5b9a5d1a585b1a5e995960921b6064820152608401610398565b6000805460ff191660011790558015610614576000805461ff0019166101001790555b60008551116106795760405162461bcd60e51b815260206004820152602b60248201527f45524332303a20696e697469616c20746f6b656e206e616d652063616e206e6f60448201526a7420626520656d7074792160a81b6064820152608401610398565b60008451116106e05760405162461bcd60e51b815260206004820152602d60248201527f45524332303a20696e697469616c20746f6b656e2073796d626f6c2063616e2060448201526c6e6f7420626520656d7074792160981b6064820152608401610398565b60008360ff16116107445760405162461bcd60e51b815260206004820152602860248201527f45524332303a20696e697469616c20646563696d616c732063616e206e6f74206044820152676265207a65726f2160c01b6064820152608401610398565b6001600160a01b0382166107c05760405162461bcd60e51b815260206004820152603860248201527f45524332303a20696e697469616c20627269646765206164647265737320636160448201527f6e206e6f742062652061207a65726f20616464726573732100000000000000006064820152608401610398565b606580546001600160a81b031916600160a01b60ff8616026001600160a01b031916176001600160a01b0384161790558451610803906066906020880190610d9c565b508351610817906067906020870190610d9c565b50801561085e576000805461ff0019169055604051600181527f7f26b83ff96e1f2b6a682f133852f6798a09c465da95921460cefb38474024989060200160405180910390a15b5050505050565b6001600160a01b0383166108c75760405162461bcd60e51b8152602060048201526024808201527f45524332303a20617070726f76652066726f6d20746865207a65726f206164646044820152637265737360e01b6064820152608401610398565b6001600160a01b0382166109285760405162461bcd60e51b815260206004820152602260248201527f45524332303a20617070726f766520746f20746865207a65726f206164647265604482015261737360f01b6064820152608401610398565b6001600160a01b0383811660008181526034602090815260408083209487168084529482529182902085905590518481527f8c5be1e5ebec7d5bd14f71427d1e84f3dd0314c0f7b2291e5b200ac8c7c3b92591015b60405180910390a3505050565b60006109968484610529565b905060001981146109fe57818110156109f15760405162461bcd60e51b815260206004820152601d60248201527f45524332303a20696e73756666696369656e7420616c6c6f77616e63650000006044820152606401610398565b6109fe8484848403610865565b50505050565b6001600160a01b038316610a685760405162461bcd60e51b815260206004820152602560248201527f45524332303a207472616e736665722066726f6d20746865207a65726f206164604482015264647265737360d81b6064820152608401610398565b6001600160a01b038216610aca5760405162461bcd60e51b815260206004820152602360248201527f45524332303a207472616e7366657220746f20746865207a65726f206164647260448201526265737360e81b6064820152608401610398565b6001600160a01b03831660009081526033602052604090205481811015610b425760405162461bcd60e51b815260206004820152602660248201527f45524332303a207472616e7366657220616d6f756e7420657863656564732062604482015265616c616e636560d01b6064820152608401610398565b6001600160a01b0380851660008181526033602052604080822086860390559286168082529083902080548601905591517fddf252ad1be2c89b69c2b068fc378daa952ba7f163c4a11628f55a4df523b3ef90610ba29086815260200190565b60405180910390a36109fe565b6001600160a01b038216610c055760405162461bcd60e51b815260206004820152601f60248201527f45524332303a206d696e7420746f20746865207a65726f2061646472657373006044820152606401610398565b8060356000828254610c1791906110cc565b90915550506001600160a01b0382166000818152603360209081526040808320805486019055518481527fddf252ad1be2c89b69c2b068fc378daa952ba7f163c4a11628f55a4df523b3ef910160405180910390a35050565b6001600160a01b038216610cd05760405162461bcd60e51b815260206004820152602160248201527f45524332303a206275726e2066726f6d20746865207a65726f206164647265736044820152607360f81b6064820152608401610398565b6001600160a01b03821660009081526033602052604090205481811015610d445760405162461bcd60e51b815260206004820152602260248201527f45524332303a206275726e20616d6f756e7420657863656564732062616c616e604482015261636560f01b6064820152608401610398565b6001600160a01b03831660008181526033602090815260408083208686039055603580548790039055518581529192917fddf252ad1be2c89b69c2b068fc378daa952ba7f163c4a11628f55a4df523b3ef910161097d565b828054610da890611091565b90600052602060002090601f016020900481019282610dca5760008555610e10565b82601f10610de357805160ff1916838001178555610e10565b82800160010185558215610e10579182015b82811115610e10578251825591602001919060010190610df5565b50610e1c929150610e20565b5090565b5b80821115610e1c5760008155600101610e21565b600060208083528351808285015260005b81811015610e6257858101830151858201604001528201610e46565b81811115610e74576000604083870101525b50601f01601f1916929092016040019392505050565b80356001600160a01b0381168114610ea157600080fd5b919050565b60008060408385031215610eb957600080fd5b610ec283610e8a565b946020939093013593505050565b600080600060608486031215610ee557600080fd5b610eee84610e8a565b9250610efc60208501610e8a565b9150604084013590509250925092565b600060208284031215610f1e57600080fd5b610f2782610e8a565b9392505050565b60008060408385031215610f4157600080fd5b610f4a83610e8a565b9150610f5860208401610e8a565b90509250929050565b634e487b7160e01b600052604160045260246000fd5b600082601f830112610f8857600080fd5b813567ffffffffffffffff80821115610fa357610fa3610f61565b604051601f8301601f19908116603f01168101908282118183101715610fcb57610fcb610f61565b81604052838152866020858801011115610fe457600080fd5b836020870160208301376000602085830101528094505050505092915050565b6000806000806080858703121561101a57600080fd5b843567ffffffffffffffff8082111561103257600080fd5b61103e88838901610f77565b9550602087013591508082111561105457600080fd5b5061106187828801610f77565b935050604085013560ff8116811461107857600080fd5b915061108660608601610e8a565b905092959194509250565b600181811c908216806110a557607f821691505b602082108114156110c657634e487b7160e01b600052602260045260246000fd5b50919050565b600082198211156110ed57634e487b7160e01b600052601160045260246000fd5b50019056fea26469706673582212207a471c9c97c9c129b485b6371054b3c5d25d0be78575f465a91166ef7a0a7d6964736f6c63430008090033",
  "devdoc": {
    "kind": "dev",
    "methods": {
      "allowance(address,address)": {
        "details": "See {IERC20-allowance}."
      },
      "approve(address,uint256)": {
        "details": "See {IERC20-approve}. NOTE: If `amount` is the maximum `uint256`, the allowance is not updated on `transferFrom`. This is semantically equivalent to an infinite approval. Requirements: - `spender` cannot be the zero address."
      },
      "balanceOf(address)": {
        "details": "See {IERC20-balanceOf}."
      },
      "bridge()": {
        "returns": {
          "_0": "The address of the bridge"
        }
      },
      "burn(address,uint256)": {
        "params": {
          "amount": "The amount of tokens to burn",
          "from": "The address holding the tokens"
        }
      },
      "decimals()": {
        "returns": {
          "_0": "The number of decimals of the token"
        }
      },
      "decreaseAllowance(address,uint256)": {
        "details": "Atomically decreases the allowance granted to `spender` by the caller. This is an alternative to {approve} that can be used as a mitigation for problems described in {IERC20-approve}. Emits an {Approval} event indicating the updated allowance. Requirements: - `spender` cannot be the zero address. - `spender` must have allowance for the caller of at least `subtractedValue`."
      },
      "increaseAllowance(address,uint256)": {
        "details": "Atomically increases the allowance granted to `spender` by the caller. This is an alternative to {approve} that can be used as a mitigation for problems described in {IERC20-approve}. Emits an {Approval} event indicating the updated allowance. Requirements: - `spender` cannot be the zero address."
      },
      "initialize(string,string,uint8,address)": {
        "details": "Upgrades an \"empty\" template. Initializes internal variables. ",
        "params": {
          "bridge_": "The address of the bridge of the tokens ",
          "decimals_": "Number of decimals of the token",
          "name_": "The name of the token",
          "symbol_": "The symbol of the token"
        }
      },
      "mint(address,uint256)": {
        "params": {
          "amount": "The amount of tokens to mint",
          "to": "The receiver of tokens"
        }
      },
      "name()": {
        "returns": {
          "_0": "The name of the token"
        }
      },
      "symbol()": {
        "returns": {
          "_0": "The symbol of the token"
        }
      },
      "totalSupply()": {
        "details": "See {IERC20-totalSupply}."
      },
      "transfer(address,uint256)": {
        "details": "See {IERC20-transfer}. Requirements: - `to` cannot be the zero address. - the caller must have a balance of at least `amount`."
      },
      "transferFrom(address,address,uint256)": {
        "details": "See {IERC20-transferFrom}. Emits an {Approval} event indicating the updated allowance. This is not required by the EIP. See the note at the beginning of {ERC20}. NOTE: Does not update the allowance if the current allowance is the maximum `uint256`. Requirements: - `from` and `to` cannot be the zero address. - `from` must have a balance of at least `amount`. - the caller must have allowance for ``from``'s tokens of at least `amount`."
      }
    },
    "title": "A custom ERC20 contract used in the bridge",
    "version": 1
  },
  "userdoc": {
    "events": {
      "Burn(address,uint256)": {
        "notice": "Is emitted on every burn of the token"
      },
      "Mint(address,uint256)": {
        "notice": "Is emitted on every mint of the token"
      }
    },
    "kind": "user",
    "methods": {
      "bridge()": {
        "notice": "Returns the address of the bridge"
      },
      "burn(address,uint256)": {
        "notice": "Destroys tokens from account, reducing the total supply."
      },
      "decimals()": {
        "notice": "Returns number of decimals of the token"
      },
      "mint(address,uint256)": {
        "notice": "Creates tokens and assigns them to account, increasing the total supply."
      },
      "name()": {
        "notice": "Returns the name of the token"
      },
      "symbol()": {
        "notice": "Returns the symbol of the token"
      }
    },
    "version": 1
  },
  "storageLayout": {
    "storage": [
      {
        "astId": 415,
        "contract": "contracts/WrappedERC20.sol:WrappedERC20",
        "label": "_initialized",
        "offset": 0,
        "slot": "0",
        "type": "t_uint8"
      },
      {
        "astId": 418,
        "contract": "contracts/WrappedERC20.sol:WrappedERC20",
        "label": "_initializing",
        "offset": 1,
        "slot": "0",
        "type": "t_bool"
      },
      {
        "astId": 2007,
        "contract": "contracts/WrappedERC20.sol:WrappedERC20",
        "label": "__gap",
        "offset": 0,
        "slot": "1",
        "type": "t_array(t_uint256)50_storage"
      },
      {
        "astId": 669,
        "contract": "contracts/WrappedERC20.sol:WrappedERC20",
        "label": "_balances",
        "offset": 0,
        "slot": "51",
        "type": "t_mapping(t_address,t_uint256)"
      },
      {
        "astId": 675,
        "contract": "contracts/WrappedERC20.sol:WrappedERC20",
        "label": "_allowances",
        "offset": 0,
        "slot": "52",
        "type": "t_mapping(t_address,t_mapping(t_address,t_uint256))"
      },
      {
        "astId": 677,
        "contract": "contracts/WrappedERC20.sol:WrappedERC20",
        "label": "_totalSupply",
        "offset": 0,
        "slot": "53",
        "type": "t_uint256"
      },
      {
        "astId": 679,
        "contract": "contracts/WrappedERC20.sol:WrappedERC20",
        "label": "_name",
        "offset": 0,
        "slot": "54",
        "type": "t_string_storage"
      },
      {
        "astId": 681,
        "contract": "contracts/WrappedERC20.sol:WrappedERC20",
        "label": "_symbol",
        "offset": 0,
        "slot": "55",
        "type": "t_string_storage"
      },
      {
        "astId": 1261,
        "contract": "contracts/WrappedERC20.sol:WrappedERC20",
        "label": "__gap",
        "offset": 0,
        "slot": "56",
        "type": "t_array(t_uint256)45_storage"
      },
      {
        "astId": 8826,
        "contract": "contracts/WrappedERC20.sol:WrappedERC20",
        "label": "_bridge",
        "offset": 0,
        "slot": "101",
        "type": "t_address"
      },
      {
        "astId": 8828,
        "contract": "contracts/WrappedERC20.sol:WrappedERC20",
        "label": "_decimals",
        "offset": 20,
        "slot": "101",
        "type": "t_uint8"
      },
      {
        "astId": 8830,
        "contract": "contracts/WrappedERC20.sol:WrappedERC20",
        "label": "_tokenName",
        "offset": 0,
        "slot": "102",
        "type": "t_string_storage"
      },
      {
        "astId": 8832,
        "contract": "contracts/WrappedERC20.sol:WrappedERC20",
        "label": "_tokenSymbol",
        "offset": 0,
        "slot": "103",
        "type": "t_string_storage"
      }
    ],
    "types": {
      "t_address": {
        "encoding": "inplace",
        "label": "address",
        "numberOfBytes": "20"
      },
      "t_array(t_uint256)45_storage": {
        "base": "t_uint256",
        "encoding": "inplace",
        "label": "uint256[45]",
        "numberOfBytes": "1440"
      },
      "t_array(t_uint256)50_storage": {
        "base": "t_uint256",
        "encoding": "inplace",
        "label": "uint256[50]",
        "numberOfBytes": "1600"
      },
      "t_bool": {
        "encoding": "inplace",
        "label": "bool",
        "numberOfBytes": "1"
      },
      "t_mapping(t_address,t_mapping(t_address,t_uint256))": {
        "encoding": "mapping",
        "key": "t_address",
        "label": "mapping(address => mapping(address => uint256))",
        "numberOfBytes": "32",
        "value": "t_mapping(t_address,t_uint256)"
      },
      "t_mapping(t_address,t_uint256)": {
        "encoding": "mapping",
        "key": "t_address",
        "label": "mapping(address => uint256)",
        "numberOfBytes": "32",
        "value": "t_uint256"
      },
      "t_string_storage": {
        "encoding": "bytes",
        "label": "string",
        "numberOfBytes": "32"
      },
      "t_uint256": {
        "encoding": "inplace",
        "label": "uint256",
        "numberOfBytes": "32"
      },
      "t_uint8": {
        "encoding": "inplace",
        "label": "uint8",
        "numberOfBytes": "1"
      }
    }
  }
}